:100000000C9436000C945E000C945E000C94E50297
:100010000C94F8020C945E000C945E000C94640640
:100020000C945E000C945E000C945E000C945E00D8
:100030000C945E000C945E000C945E000C945E00C8
:100040000C941F090C945E000C94FC090C944A0A51
:100050000C945E000C945E000C945E000C945E00A8
:100060000C945E000C945E002403B80B11241FBE98
:10007000CFEFD8E0DEBFCDBF12E0A0E0B1E0E2E913
:10008000FEE102C005900D92AA37B107D9F723E02F
:10009000AAE7B2E001C01D92A136B207E1F710E075
:1000A000CCE6D0E004C02297FE010E94340FC8368F
:1000B000D107C9F70E940E0C0C94470F0C94000056
:1000C0006CE084E992E00E94F60466E184E992E043
:1000D0000E94F60465E972E084E992E00E949505C9
:1000E00081E0089582E084B984E087B984E38AB925
:1000F00015B818B81BB822982A9A87B1847F87B997
:10010000439A8AB187738AB95B9A08955A985C9822
:10011000299A42980895CF93DF936CE084E992E0A6
:100120000E94F6048E7F8093A40266E184E992E047
:100130000E94F60460E171E08FE393E00E94A40D59
:100140006091A40240E150E08FE393E00E94270D0C
:100150008091A402803811F08438B1F46BE084E916
:1001600092E00E94F604D82F6AE171E08FE393E0F9
:100170000E94A40D4AE050E06D2F8FE393E00E94AF
:10018000270DC1E0D23009F0C0E00E94600081E09C
:100190008C27DF91CF910895882341F0813061F45D
:1001A00090916C00986090936C0012C090916B00DD
:1001B000946090936B000CC090916B00946090934E
:1001C0006B0090916C00986090936C00823068F4A2
:1001D0009091680021E030E0082E01C0220F0A94BF
:1001E000EAF7922B909368000895809168008360ED
:1001F000809368000895CF92EF920F9382E00E945F
:10020000CC0065E271E08FE393E00E948E0E62E421
:1002100071E08FE393E00E94A40D4AE050E068E0B3
:1002200070E08FE393E00E94850D6AE471E08FE354
:1002300093E00E94A40D4AE050E067E070E08FE395
:1002400093E00E94850D65E571E08FE393E00E94E5
:10025000A40D4AE050E063E070E08FE393E00E9479
:10026000850D61E671E08FE393E00E94A40D4AE002
:1002700050E069E270E08FE393E00E94850D60E753
:1002800071E08FE393E00E94A40D4AE050E060E14A
:1002900070E08FE393E00E94850D63E871E08FE3E7
:1002A00093E00E94A40D4AE050E061E070E08FE32B
:1002B00093E00E94850D67E272E08FE393E00E9475
:1002C0008E0ECC24C39480E1E82E09E223E047E0BF
:1002D00068E084E992E00E94D1050F91EF90CF9001
:1002E0000895882341F0813061F490916C00977FEC
:1002F00090936C0012C090916B009B7F90936B0069
:100300000CC090916B009B7F90936B0090916C0060
:10031000977F90936C00843070F49091680021E096
:1003200030E0082E01C0220F0A94EAF72095292315
:100330002093680008951092680008951092AA0210
:100340001092A90293B7917F946093BF93B7916085
:1003500093BFF89495B7906695BF9F7D95BF88230E
:1003600029F081E00E94CC0080E004C080E00E947F
:10037000CC0081E00E9471010E946000882339F066
:100380007894889583B78E7F83BF1092A8020895D2
:10039000CF92DF92EF92FF928091A902882309F415
:1003A000ABC08091A302882309F4A6C01092A902D1
:1003B00065E972E084E992E00E9495051A99D0C03F
:1003C00066E971E08FE393E00E948E0E1A9BAFC046
:1003D0000E948B008093A7028091A702811102C026
:1003E0000E94860081E08093A8028091A5029091EE
:1003F000A60201969093A6028093A5028D329140A9
:1004000020F01092A6021092A50268E971E08FE335
:1004100093E00E94A40D6091A5027091A6024AE0AB
:1004200050E08FE393E00E940A0D5C9A8AE18A957E
:10043000F1F700C082E00E94710110929B021092BD
:100440009C0210929D0210929E0288E892E00E9407
:100450002307AB01BC0140939F025093A00260931D
:10046000A1027093A20221E030E088E892E00E94AD
:100470009F0660939B0270939C0280939D029093D1
:100480009E0267EA71E08FE393E00E94A40D409121
:100490009B0250919C0260919D0270919E0222E00D
:1004A00030E08FE393E00E948B0E62EB71E08FE30C
:1004B00093E00E94A40D40919F025091A002609190
:1004C000A1027091A2022AE030E08FE393E00E9443
:1004D000F60CC0909B02D0909C02E0909D02F090A0
:1004E0009E0220E030E04AEF53E4C701B6010E94CB
:1004F0009A0787FD20C05A988091AA02882359F054
:100500001092AA020E948B008093A7028091A702FA
:1005100081E08093A8028091A802882321F1809134
:10052000A702FF90EF90DF90CF900C949E0181E0A6
:100530008093A70257CF20E030E048EC52E4C70197
:10054000B6010E94B80887FDD6CF5A9A9FEF2BE4D8
:100550008DE1915020408040E1F700C00000CBCFFA
:1005600064E971E02FCFFF90EF90DF90CF90089576
:10057000CF93F894C0917C008EE480937C0062E07D
:1005800070E080E090E00E94670980917A008064CA
:1005900080937A0080917A0086FDFCCF20917800CC
:1005A0008091790030E0382B442737FD4095542F57
:1005B000C0937C00789464EB7BE281E190E00E9440
:1005C000080FCA01B901CF9108951F920F920FB67B
:1005D0000F9211248F93F8941A9B03C081E08093AB
:1005E000AA0278948F910F900FBE0F901F901895CC
:1005F0001F920F920FB60F9211242F933F934F9398
:100600005F936F937F938F939F93AF93BF93EF937A
:10061000FF93F894339B06C081E08093A90280E0A9
:100620000E9471017894FF91EF91BF91AF919F91DA
:100630008F917F916F915F914F913F912F910F908B
:100640000FBE0F901F9018956DE184E992E00E9413
:10065000C90488E892E00C948D06CF92DF92EF9265
:10066000FF920E94720078941092AA021092A9023E
:100670001092A8021092A7020E94860010927F0298
:1006800010928002109281021092820210927B02DC
:1006900010927C0210927D0210927E0210927A02D9
:1006A00010928302109284021092850210928602A8
:1006B0008FEF809387021092A6021092A5021092EB
:1006C0007A0040E052EC61E070E08FE393E00E943A
:1006D000850A8FE393E00E94B60B8823D1F38FE362
:1006E00093E00E94660B68EE73E080E090E00E9469
:1006F00067096DE084E992E00E94F6048A3251F4C1
:1007000081E08093A3026DEB71E08FE393E00E94A0
:100710008E0E08C064ED71E08FE393E00E948E0EB0
:100720001092A30262EF71E08FE393E00E948E0EBD
:100730006AE072E08FE393E00E948E0E0E94B8029E
:100740006093830270938402809385029093860263
:1007500065E472E08FE393E00E94A40D6091830250
:1007600070918402809185029091860228EEC22EBB
:1007700023E0D22EE12CF12CA70196010E94080F54
:10078000BA01A9012AE030E08FE393E00E94450D11
:1007900068E072E08FE393E00E94A40D6091830211
:1007A000709184028091850290918602A701960142
:1007B0000E94080FAB01BC012AE030E08FE393E018
:1007C0000E94450D66E572E08FE393E00E948E0E75
:1007D00068E572E08FE393E00E94A40D60910F0141
:1007E00070E04AE050E08FE393E00E94850D62E6FE
:1007F00072E08FE393E00E94A40D6091A30270E089
:100800004AE050E08FE393E00E94850D67E272E0DA
:100810008FE393E00E948E0E0E94FB006CED75E06A
:1008200080E090E0FF90EF90DF90CF900C9467090C
:100830001092AB0256984E9BFECF5798089588238E
:1008400011F0579802C0579A5F9856984E9BFECF6A
:100850008AE08A95F1F700C0569A5E988AE08A95F8
:10086000F1F700C00895579856984E9BFECF89B176
:100870009AE09A95F1F700C0569A5E989AE09A9598
:10088000F1F700C0881F8827881F08958091AB0268
:10089000882361F057988AE08A95F1F700C056984E
:1008A0004E9BFECF8AE08A95F1F700C0579A5F9879
:1008B0008AE08A95F1F700C0569A5E988AE08A9598
:1008C000F1F700C081E08093AB020895579A5F98DA
:1008D0008AE08A95F1F700C056984E9BFECF85E0DE
:1008E0008A95F1F7000057981092AB020895CF93C4
:1008F000DF93D82FC8E08D2F881F8827881F0E947C
:100900001F04DD0FC150B9F7579856984E9BFECF84
:100910004F990CC08AE08A95F1F700C0569A5E980C
:10092000579A8AE08A95F1F700C0C1E08C2FDF91D9
:10093000CF9108951F93CF93DF93182FD8E0C0E095
:100940000E943304CC0FC82BD150D1F7579A1123F2
:1009500059F0579856984E9BFECF8AE08A95F1F74A
:1009600000C0569A5E980CC0579A5F9856984E9B56
:10097000FECF8AE08A95F1F700C0569A5E985798A4
:100980008AE08A95F1F700C08C2FDF91CF911F91FB
:100990000895FC0160830C941804EF92FF921F935A
:1009A000CF93DF931F92CDB7DEB77C01142F6983FD
:1009B0000E944604F7018081880F0E9477046981B4
:1009C000882361F0862F0E947704882339F0812FD5
:1009D0000E9477040E94660481E001C08FEF0F90AF
:1009E000DF91CF911F91FF90EF9008950F931F9388
:1009F000CF93DF931F92CDB7DEB78C0169830E943E
:100A00004604F8018081880F0E9477046981811172
:100A100002C08FEF16C0862F0E9477048823C9F387
:100A20000E944604F8018081880F81600E9477044B
:100A3000882379F381E00E949A0489830E946604E6
:100A400089810F90DF91CF911F910F910895CF93DE
:100A5000DF93EC016AE20E94F604482F41606AE2EB
:100A6000CE01DF91CF910C94CD04CF93DF93EC01B5
:100A70006AE20E94F604482F4E7F6AE2CE01DF91BF
:100A8000CF910C94CD04AF92BF92CF92DF92EF92B0
:100A9000FF920F931F93CF93DF9300D01F92CDB798
:100AA000DEB78C017A012A833B8369830E94460466
:100AB000F8018081880F0E9477046981862F0E9447
:100AC00077040E944604F8018081880F81600E94AB
:100AD00077042A81A22E3B81B32E00E010E067014B
:100AE000F1E0CF1AD1080E151F0584F40C151D0571
:100AF00011F481E001C080E00E949A04F501808336
:100B00000F5F1F4FFFEFAF1ABF0AEDCF0F900F908F
:100B10000F90DF91CF911F910F91FF90EF90DF9099
:100B2000CF90BF90AF900C9466040F931F93CF9318
:100B3000DF9300D000D000D0CDB7DEB78B019E018F
:100B40002F5F3F4F46E050E061E00E944305FE0109
:100B5000329620E030E0B9016E7F600F711FCF0147
:100B60000197DC018C9190E0982F88274081842B9D
:100B700054E0959587955A95E1F7DB018D939C9309
:100B80002E5F3F4F32962630310529F726960FB655
:100B9000F894DEBF0FBECDBFDF91CF911F910F91B3
:100BA0000895AF92BF92CF92EF92FF920F931F934F
:100BB000CF93DF931F92CDB7DEB75C01F42E122FD7
:100BC00069830E9435056981623021F0643011F03B
:100BD000683039F4462F50E055954795559547951F
:100BE00001C040E06EE0C5010E94CD046AE2C5018B
:100BF0000E94F604482F47706AE2C5010E94CD04A6
:100C000087E08F1570F06AE2C5010E94F60498E053
:100C1000F99EB0011124482F462B6AE2C5010E94BB
:100C2000CD04143070F46AE2C5010E94F604E0E4D9
:100C30001E9F90011124482F422B6AE2C5010E9499
:100C4000CD046BE2C5010E94F604482F4F616BE2B0
:100C5000C5010E94CD04402F69E2C5010E94CD0468
:100C60004AE06CE2C5010E94CD0445E86DE2C50191
:100C70000E94CD0444E86EE2C5010E94CD046EE2FC
:100C8000C5010E94F604482F6EE2C5010E94CD0402
:100C900048EF65E1C5010E94CD044E2D67E1C50115
:100CA0000E94CD044C2D68E1C5010E94CD04C50110
:100CB0000F90DF91CF911F910F91FF90EF90CF9008
:100CC000BF90AF900C9427051F920F920FB60F9212
:100CD00011242F933F934F935F936F937F938F9341
:100CE0009F93AF93BF93EF93FF93E091AC02F0918A
:100CF000AD02309709F00995FF91EF91BF91AF9147
:100D00009F918F917F916F915F914F913F912F9123
:100D10000F900FBE0F901F90189545E85CEF6CED9B
:100D200071E4FC0140835183628373834CE953E592
:100D30006CE872E444835583668377830895CF9388
:100D4000DF93EC01CB01BA01232B39F00E94080894
:100D5000288139814A815B8106C00E9408082C8164
:100D60003D814E815F810E949E0720E030E040E09F
:100D70005FE30E94BC08DF91CF910895CF92DF928C
:100D8000EF92FF920F931F93662311F068E001C06A
:100D900060E0DA01C901BF7000E010E0980179B1AC
:100DA000787076131DC0680179014FEFC41AD40A18
:100DB000E40AF40A081719072A073B07D1F197013B
:100DC0008601EDCF680179014FEFC41AD40AE40A15
:100DD000F40A081719072A073B0759F197018601FA
:100DE00079B178707613EECF801B910BA20BB30B09
:100DF00020E030E0A90179B1787076130AC0281795
:100E000039074A075B07A9F02F5F3F4F4F4F5F4FEE
:100E1000F2CFA5E1B0E00E94270F605F7F4F8F4FB8
:100E20009F4FB4E09695879577956795BA95D1F7DA
:100E300003C060E070E0CB011F910F91FF90EF9035
:100E4000DF90CF9008955D982AE02A95F1F700C0D1
:100E50005D9A25E32A95F1F700005D9820E231EADA
:100E600047E050E061E00C94BE065058BB27AA272B
:100E70000ED044C135D130F03AD120F031F49F3F4B
:100E800011F41EF42AC10EF4E095E7FB20C1E92F0E
:100E900046D180F3BA17620773078407950718F0E5
:100EA00071F49EF55EC10EF4E0950B2EBA2FA02DC5
:100EB0000B01B90190010C01CA01A0011124FF2707
:100EC000591B99F0593F50F4503E68F11A16F04002
:100ED000A22F232F342F4427585FF3CF4695379501
:100EE0002795A795F0405395C9F77EF41F16BA0BC6
:100EF000620B730B840BBAF09150A1F0FF0FBB1F74
:100F0000661F771F881FC2F70EC0BA0F621F731FBC
:100F1000841F48F4879577956795B795F7959E3F19
:100F200008F0B3CF9395880F08F09927EE0F9795A7
:100F300087950895A8D008F481E008950CD0DEC00C
:100F4000D6D040F0CDD030F021F45F3F19F0BFC0D3
:100F5000511108C1C2C0E3D098F39923C9F35523B6
:100F6000B1F3951B550BBB27AA276217730784079C
:100F700038F09F5F5F4F220F331F441FAA1FA9F352
:100F800033D00E2E3AF0E0E830D091505040E69544
:100F9000001CCAF729D0FE2F27D0660F771F881FA5
:100FA000BB1F261737074807AB07B0E809F0BB0B94
:100FB000802DBF01FF2793585F4F2AF09E3F5105B8
:100FC00068F085C0CFC05F3FECF3983EDCF38695B8
:100FD00077956795B795F7959F5FC9F7880F911D2E
:100FE0009695879597F90895E1E0660F771F881F1A
:100FF000BB1F621773078407BA0720F0621B730BCD
:10100000840BBA0BEE1F88F7E0950895E89409C0A9
:1010100097FB3EF490958095709561957F4F8F4F2B
:101020009F4F9923A9F0F92F96E9BB279395F69541
:10103000879577956795B795F111F8CFFAF4BB0FBF
:1010400011F460FF1BC06F5F7F4F8F4F9F4F16C023
:10105000882311F096E911C0772321F09EE8872FAD
:10106000762F05C0662371F096E8862F70E060E069
:101070002AF09A95660F771F881FDAF7880F9695E2
:10108000879597F90895990F0008550FAA0BE0E886
:10109000FEEF16161706E807F907C0F0121613063A
:1010A000E407F50798F0621B730B840B950B39F47A
:1010B0000A2661F0232B242B252B21F408950A26E0
:1010C00009F4A140A6958FEF811D811D089597F920
:1010D0009F6780E870E060E008959FEF80EC0895DE
:1010E00000240A9416161706180609060895002407
:1010F0000A9412161306140605060895092E039481
:10110000000C11F4882352F0BB0F40F4BF2B11F4F4
:1011100060FF04C06F5F7F4F8F4F9F4F089557FD53
:101120009058440F551F59F05F3F71F04795880F55
:1011300097FB991F61F09F3F79F0879508951216EC
:1011400013061406551FF2CF4695F1DF08C0161698
:1011500017061806991FF1CF869571056105089449
:101160000895E894BB2766277727CB0197F9089560
:101170008ADF08F48FEF08950BD0C0CFB1DF28F0DD
:10118000B6DF18F0952309F0A2CFA7CF1124EACF3C
:10119000C6DFA0F3959FD1F3950F50E0551F629FD6
:1011A000F001729FBB27F00DB11D639FAA27F00DC0
:1011B000B11DAA1F649F6627B00DA11D661F829FE7
:1011C0002227B00DA11D621F739FB00DA11D621FCC
:1011D000839FA00D611D221F749F3327A00D611DE9
:1011E000231F849F600D211D822F762F6A2F1124CB
:1011F0009F5750408AF0E1F088234AF0EE0FFF1F1E
:10120000BB1F661F771F881F91505040A9F79E3F54
:10121000510570F05CCFA6CF5F3FECF3983EDCF356
:10122000869577956795B795F795E7959F5FC1F791
:10123000FE2B880F911D9695879597F908951F921B
:101240000F920FB60F9211242F933F938F939F937A
:10125000AF93BF938091B2029091B302A091B40278
:10126000B091B5023091B6020196A11DB11D232F98
:101270002D5F2D3720F02D570196A11DB11D209314
:10128000B6028093B2029093B302A093B402B093DB
:10129000B5028091AE029091AF02A091B002B091E0
:1012A000B1020196A11DB11D8093AE029093AF02D1
:1012B000A093B002B093B102BF91AF919F918F9173
:1012C0003F912F910F900FBE0F901F9018959B018B
:1012D000AC017FB7F8948091AE029091AF02A091DB
:1012E000B002B091B10266B5A89B05C06F3F19F07E
:1012F0000196A11DB11D7FBFBA2FA92F982F882756
:10130000860F911DA11DB11D62E0880F991FAA1FB4
:10131000BB1F6A95D1F7BC012DC0FFB7F89480912F
:10132000AE029091AF02A091B002B091B102E6B5C9
:10133000A89B05C0EF3F19F00196A11DB11DFFBF8D
:10134000BA2FA92F982F88278E0F911DA11DB11D8F
:10135000E2E0880F991FAA1FBB1FEA95D1F7861BF1
:10136000970B885E9340C8F2215030404040504077
:1013700068517C4F211531054105510571F60895DD
:10138000789484B5826084BD84B5816084BD85B560
:10139000826085BD85B5816085BDEEE6F0E0808127
:1013A00081608083E1E8F0E0108280818260808348
:1013B000808181608083E0E8F0E0808181608083CB
:1013C000E1EBF0E0808184608083E0EBF0E08081FD
:1013D00081608083EAE7F0E080818460808380819F
:1013E0008260808380818160808380818068808347
:1013F0001092C100089508951F920F920FB60F9298
:1014000011242F933F934F938F939F93EF93FF93C9
:101410008091C00082FD1DC04091C6002091F7025E
:101420003091F8022F5F3F4F2F7330708091F90297
:101430009091FA022817390771F0E091F702F091C4
:10144000F802E954FD4F40833093F8022093F702ED
:1014500002C08091C600FF91EF919F918F914F91B3
:101460003F912F910F900FBE0F901F901895E09114
:101470004B03F0914C03E05CFF4F819191912081EF
:101480003181821B930B8F739070892B11F00E9416
:10149000FB0908951F920F920FB60F9211242F93FC
:1014A0003F938F939F93EF93FF9320913B03309152
:1014B0003C0380913D0390913E032817390731F496
:1014C0008091C1008F7D8093C10014C0E0913D03E5
:1014D000F0913E03E550FD4F208180913D039091B6
:1014E0003E0301968F73907090933E0380933D036B
:1014F0002093C600FF91EF919F918F913F912F9183
:101500000F900FBE0F901F901895AF92BF92DF9271
:10151000EF92FF920F931F93CF93DF93EC017A0129
:101520008B01DD24403081EE580780E0680780E0C1
:10153000780711F0DD24D39491E0A92EB12CEC8929
:10154000FD89DD2069F0C50108A002C0880F991F40
:101550000A94E2F7808360E079E08DE390E005C0D3
:10156000108260E874E88EE190E0A80197010E9483
:10157000E60E2150304040405040569547953795F3
:10158000279580E12030380720F0DD2011F0DD24A0
:10159000D6CFE889F9893083EA89FB89208319A2AB
:1015A000EE89FF89408121E030E0C9010C8C02C046
:1015B000880F991F0A94E2F7482B4083EE89FF8930
:1015C0004081C9010D8C02C0880F991F0A94E2F76F
:1015D000482B4083EE89FF894081C9010E8C02C0EF
:1015E000880F991F0A94E2F7482B4083EE89FF8900
:1015F00080810F8C02C0220F331F0A94E2F72095DE
:1016000028232083DF91CF911F910F91FF90EF90BE
:10161000DF90BF90AF900895DC011C96ED91FC9196
:101620001D97E05CFF4F2191319180819181281BB2
:10163000390B2F733070C9010895DC011C96ED91B0
:10164000FC911D97E05CFF4F20813181E054F04018
:10165000DF01AE5BBF4F8D919C9111972817390721
:1016600019F42FEF3FEF07C08D919C91E80FF91F00
:101670008081282F30E0C9010895DC011C96ED918E
:10168000FC911D97E05CFF4F20813181E054F040D8
:10169000DF01AE5BBF4F8D919C91119728173907E1
:1016A00019F42FEF3FEF10C08D919C911197E80F27
:1016B000F91F20818D919C91119701968F739070E5
:1016C00011969C938E9330E0C9010895DC019196A8
:1016D0008C919197882339F05496ED91FC91559710
:1016E000808186FFF9CF91961C920895CF93DF9366
:1016F000EC01EE85FF85E05CFF4F20813181E054F5
:10170000F0402F5F3F4F2F733070DF01AE5BBF4F54
:101710008D919C91119728173907D1F3E05CFF4F09
:1017200080819181E054F040E80FF91F6083EE85DD
:10173000FF85E05CFF4F31832083EE89FF892081A4
:1017400081E090E00F8C02C0880F991F0A94E2F7A5
:10175000282B208381E089A3EC89FD898081806426
:10176000808381E090E0DF91CF91089581E008953A
:10177000109242031092410388EE93E0A0E0B0E0A3
:101780008093430390934403A0934503B09346038F
:101790008EE692E09093400380933F0387EB92E0C4
:1017A00090934C0380934B038BEF92E090934E0306
:1017B00080934D0385EC90E09093500380934F030A
:1017C00084EC90E0909352038093510380EC90E07E
:1017D000909354038093530381EC90E090935603CD
:1017E0008093550382EC90E09093580380935703C5
:1017F00086EC90E090935A038093590384E08093A1
:101800005B0383E080935C0387E080935D0385E066
:1018100080935E0381E080935F030895CF93DF930D
:101820000E94C0090E942D03C7E3DAE00E94C801AC
:101830002097E1F30E94370AF9CFCF92DF92EF921F
:10184000FF920F931F93CF93DF937C016B018A016B
:10185000C0E0D0E00FC0D6016D916D01D701ED91D0
:10186000FC910190F081E02DC7010995C80FD91FA7
:10187000015010400115110571F7CE01DF91CF9194
:101880001F910F91FF90EF90DF90CF900895EF920E
:10189000FF920F931F938C01DC01ED91FC9101905D
:1018A000F081E02D6DE009957C01D801ED91FC916E
:1018B0000190F081E02DC8016AE009959C012E0D90
:1018C0003F1DC9011F910F91FF90EF900895CF9395
:1018D000DF93EC016115710519F420E030E00FC0D1
:1018E000DB010D900020E9F71197A61BB70BE881EB
:1018F000F9810280F381E02DAD0109959C01C901B8
:10190000DF91CF9108954F925F927F928F929F9235
:10191000AF92BF92CF92DF92EF92FF920F931F93FD
:10192000DF93CF93CDB7DEB7A1970FB6F894DEBFA4
:101930000FBECDBF2C01742ECB01223008F42AE05B
:1019400019A231E2C32ED12CCC0EDD1E822E992499
:10195000AA24BB24672D752FA50194010E94E60ED1
:1019600079018A01C801B701A50194010E94D60E30
:10197000472D461B0894C108D1084A3014F4405D35
:1019800001C0495CF6014083E114F1040105110531
:1019900021F07E2C5F2DC801DDCFC201B6010E946F
:1019A000670CA1960FB6F894DEBF0FBECDBFCF91E6
:1019B000DF911F910F91FF90EF90DF90CF90BF903C
:1019C000AF909F908F907F905F904F900895DC0133
:1019D0002115310541F4ED91FC910190F081E02D4C
:1019E000642F099508950E94830C0895EF92FF9249
:1019F0000F931F937C010E94E70C8C01C7010E948A
:101A0000470C9C01200F311FC9011F910F91FF90BE
:101A1000EF900895CF92DF92EF92FF920F931F9372
:101A20006C017B019A0100E010E0B801A7010E945F
:101A3000E70C8C01C6010E94470C080F191FC80152
:101A40001F910F91FF90EF90DF90CF900895CF926C
:101A5000DF92EF92FF920F931F936C01E62E9A0193
:101A6000FF2400E010E0B801A7010E94E70C8C0100
:101A7000C6010E94470C080F191FC8011F910F9142
:101A8000FF90EF90DF90CF900895CF92DF92EF928A
:101A9000FF920F931F93CF93DF93EC016A017B01B9
:101AA0002115310541F4E881F9810190F081E02DA3
:101AB000642F09951FC02A303105D1F477FF17C074
:101AC000E881F9810190F081E02D6DE209958C01AA
:101AD00044275527BA014C195D096E097F09CE01CB
:101AE0002AE00E94830C9801280F391F04C02AE0C5
:101AF0000E94830C9C01C901DF91CF911F910F912E
:101B0000FF90EF90DF90CF900895CF92DF92EF9209
:101B1000FF920F931F936C017B019A010027F7FC42
:101B20000095102FB801A7010E94450D8C01C60138
:101B30000E94470C080F191FC8011F910F91FF90B9
:101B4000EF90DF90CF9008950E94670C08957F92E8
:101B50008F929F92AF92BF92CF92DF92EF92FF92BD
:101B60000F931F93CF93DF934C017A018B01722E59
:101B7000CB01BA01A80197010E94D20E882321F05F
:101B8000C40160E071E021C0C0E0D0E0570168010D
:101B9000E894D7F8C601B5012FEF3FEF4FE75FE7B5
:101BA0000E94D20E882351F4C601B5012FEF3FEFFA
:101BB0004FE75FE70E949A07181614F0C1E0D0E0E3
:101BC000219739F0C40164E071E00E94670CEC01D8
:101BD00093C0C801B7012FEF3FEF4FE75FE40E94CA
:101BE000B808181654F0C801B7012FEF3FEF4FE7C0
:101BF0005FEC0E949A07882324F4C40168E071E036
:101C0000E4CFC801B70120E030E040E050E00E949E
:101C10009A0787FD03C0C0E0D0E00EC0D401ED916B
:101C2000FC910190F081E02DC4016DE20995EC0179
:101C300017FB109517F9109520E030E040E05FE3C6
:101C4000DD240BC0CA01B90120E030E040E251E4DC
:101C50000E949E079B01AC01D394D71498F3C8014E
:101C6000B7010E9436075B016C010E94A60E7B0142
:101C70008C01C401B801A7012AE030E00E94E70C02
:101C8000C80FD91F772039F0C4016CE071E00E94C1
:101C9000670CC80FD91FC801B7010E9406089B0135
:101CA000AC01C601B5010E94350724C020E030E038
:101CB00040E251E40E94BC087B018C010E94A10E0D
:101CC0005B016C01CC24B7FCC094DC2CC401B601D0
:101CD000A5012AE030E00E94450DC80FD91FC601BA
:101CE000B5010E9408089B01AC01C801B7010E9420
:101CF00035077A947720D1F6CE01DF91CF911F91ED
:101D00000F91FF90EF90DF90CF90BF90AF909F909A
:101D10008F907F9008950E94A70D0895EF92FF92F3
:101D20000F931F937C010E94670C8C01C7010E94D6
:101D3000470C080F191FC8011F910F91FF90EF90DA
:101D4000089504D06894B1110DCA0895F0D988F0AF
:101D50009F5790F0B92F9927B751A0F0D1F0660F97
:101D6000771F881F991F1AF0BA95C9F712C0B130B2
:101D700081F0F7D9B1E00895F4C9672F782F88274B
:101D8000B85F39F0B93FCCF3869577956795B395F1
:101D9000D9F73EF490958095709561957F4F8F4F60
:101DA0009F4F089570D9880B990B0895DB018F938D
:101DB0009F930E94270FBF91AF91A29F800D911D0D
:101DC000A39F900DB29F900D11240895A1E21A2EA9
:101DD000AA1BBB1BFD010DC0AA1FBB1FEE1FFF1FCF
:101DE000A217B307E407F50720F0A21BB30BE40B1F
:101DF000F50B661F771F881F991F1A9469F7609566
:101E00007095809590959B01AC01BD01CF0108951F
:101E1000052E97FB1EF400940E941F0F57FD07D05C
:101E20000E94E60E07FC03D04EF40C941F0F509551
:101E30004095309521953F4F4F4F5F4F08959095B6
:101E40008095709561957F4F8F4F9F4F08950E94A9
:101E5000380FA59F900DB49F900DA49F800D911DEC
:101E600011240895EE0FFF1F0590F491E02D0994C1
:101E7000A29FB001B39FC001A39F700D811D1124CB
:101E8000911DB29F700D811D1124911D0895F8942C
:021E9000FFCF82
:101E92006E616E00696E66006F7666002E00000746
:101EA200494E5420313A203078005359534D4F4413
:101EB2003A2030780053657474696E67207570201B
:101EC200616363656C65726F6D65746572732E2EE6
:101ED2002E005363616C653A200044617461206F87
:101EE20064723A2000536C656570206F64723A2008
:101EF2000041736C65657020636F756E743A2000E3
:101F02004D6F74696F6E207468726573686F6C646C
:101F12003A20004465626F756E636520636F756E6B
:101F2200743A2000310030004261747420636F758E
:101F32006E7465723A200044697374616E63653A27
:101F42002000636D2C20555345433A20004D4D41EE
:101F52003834353251206973206F6E2D6C696E658D
:101F62002E2E2E00436F756C64206E6F7420636F8B
:101F72006E6E65637420746F204D4D413834353276
:101F8200510057454C434F4D4520544F20424C4938
:101F92004E44534146452E2E2E002B2B2B2B2B2B02
:101FA2002B2B2B2B2B2B2B2B2B2B2B2B2B2B2B2B7F
:101FB2002B2B2B2B2B2B2B2B2B2B2B2B2B2B2B2B6F
:101FC2002B2B2B2B2B2B2B2B2B2B2B2B2B2B2B2B5F
:101FD2002B2B2B2B00506F776572204C6576656C2E
:101FE2002041743A20005600414343204F44523A64
:101FF200200041434320313A200000000000760BCC
:0A2002001D0C0C0B3D0B1D0B660BB3
:00000001FF
