:100000000C9436000C945E000C945E000C94BE01BF
:100010000C94D1010C945E000C945E000C94AF051E
:100020000C945E000C945E000C945E000C945E00D8
:100030000C945E000C945E000C945E000C945E00C8
:100040000C94C9060C945E000C94A6070C94F4075B
:100050000C945E000C945E000C945E000C945E00A8
:100060000C945E000C945E00E401620911241FBE32
:10007000CFEFD8E0DEBFCDBF12E0A0E0B1E0E6E711
:10008000FBE102C005900D92A639B107D9F723E034
:10009000A6E9B2E001C01D92A536B207E1F710E073
:1000A000CCE6D0E004C02297FE010E94A60DC8361F
:1000B000D107C9F70E94B8090C94B90D0C9400003F
:1000C0006CE086E992E00E94410466E186E992E0F4
:1000D0000E94410463EA72E086E992E00E94E00433
:1000E00081E0089582E084B984E087B984E58AB923
:1000F00015B818B81BB822982A9A87B1847F87B997
:10010000439A8AB18F718AB95D9A0895882341F024
:10011000813061F490916C00986090936C0012C0F3
:1001200090916B00946090936B000CC090916B0069
:10013000946090936B0090916C00986090936C0029
:10014000823068F49091680021E030E0082E01C010
:10015000220F0A94EAF7922B9093680008958091F9
:1001600068008360809368000895CF92EF920F93A8
:1001700082E00E94860060E171E083E493E00E94E7
:10018000070C6DE271E083E493E00E941D0B4AE0EE
:1001900050E068E070E083E493E00E94FE0A65E3CB
:1001A00071E083E493E00E941D0B4AE050E067E0B9
:1001B00070E083E493E00E94FE0A60E471E083E46F
:1001C00093E00E941D0B4AE050E063E070E083E49E
:1001D00093E00E94FE0A6CE471E083E493E00E94E5
:1001E0001D0B4AE050E069E270E083E493E00E9476
:1001F000FE0A6BE571E083E493E00E941D0B4AE088
:1002000050E060E170E083E493E00E94FE0A6EE655
:1002100071E083E493E00E941D0B4AE050E061E04E
:1002200070E083E493E00E94FE0A64E072E083E4FD
:1002300093E00E94070CCC24C39480E1E82E09E2ED
:1002400023E047E068E086E992E00E941C050F91F8
:10025000EF90CF900895882341F0813061F4909120
:100260006C00977F90936C0012C090916B009B7F05
:1002700090936B000CC090916B009B7F90936B00F0
:1002800090916C00977F90936C00843070F4909103
:10029000680021E030E0082E01C0220F0A94EAF73E
:1002A00020952923209368000895109268000895EE
:1002B000CF93C82F1092AE021092AD0293B7917FE8
:1002C000946093BF93B7916093BFF89485B78066AD
:1002D00085BF8F7D85BF80E00E94860081E0CC23B2
:1002E00019F00E94860002C00E942B010E9460004B
:1002F000811103C06FE771E002C06CE871E083E434
:1003000093E00E94070C7894889593B79E7F93BFE3
:10031000C11103C081E00E9486001092AC02CF910F
:100320000895CF93F894C0917C008EE480937C0074
:1003300062E070E080E090E00E94110780917A0016
:10034000806480937A0080917A0086FDFCCF2091B2
:1003500078008091790030E0382B442737FD4095B4
:10036000542FC0937C00789464EB7BE281E190E0B1
:100370000E947A0DCA01B901CF9108951F920F9280
:100380000FB60F9211248F93F8941A9B03C081E04B
:100390008093AE0278948F910F900FBE0F901F90B4
:1003A00018951F920F920FB60F9211248F93F89405
:1003B000339B03C081E08093AD0278948F910F90BE
:1003C0000FBE0F901F9018956DE186E992E00C9496
:1003D00014048F929F92AF92BF92CF92DF92EF92CE
:1003E000FF920E94720078941092AE021092AD02B9
:1003F0001092AC021092AA0240E052EC61E070E070
:1004000083E493E00E942F0883E493E00E94600954
:100410008823D1F383E493E00E94100968EE73E02F
:1004200080E090E00E9411076DE086E992E00E9472
:1004300041048A3251F481E08093A9026AE971E0B3
:1004400083E493E00E94070C08C061EB71E083E451
:1004500093E00E94070C1092A9026FEC71E083E414
:1004600093E00E94070C67EE71E083E493E00E9442
:10047000070C0E9491016B017C0162E272E083E44F
:1004800093E00E941D0BC701B60128EE33E040E067
:1004900050E00E947A0D49015A016B017C012AE06B
:1004A00030E0B501A40183E493E00E94BE0A65EE4A
:1004B00071E083E493E00E941D0B2AE030E0B70175
:1004C000A60183E493E00E94BE0A63E372E083E442
:1004D00093E00E94070C65E372E083E493E00E94DE
:1004E0001D0B60910F0170E04AE050E083E493E05F
:1004F0000E94FE0A6FE372E083E493E00E941D0B0A
:100500006091A90270E04AE050E083E493E00E9429
:10051000FE0A64E072E083E493E00E94070C64EF5B
:1005200071E080E090E00E941107FF90EF90DF9073
:10053000CF90BF90AF909F908F900C94B5000F9389
:100540001F93CF93DF938091AD02882309F448C0B5
:100550008091A902882309F443C01092AD0263EA96
:1005600072E086E992E00E94E00481E08093AA02B2
:100570008093AC02C3EAD2E007E912E06991799175
:10058000882777FD8095982F0E94DA0520E030E0DB
:1005900040E85BE30E941506F80161937193819333
:1005A00091938F01F2E0C93ADF0741F7C7E9D2E042
:1005B000499159916991799124E030E083E493E085
:1005C0000E94040C67E472E083E493E00E941D0B38
:1005D00082E0C33AD80761F783E493E00E94F1090F
:1005E0008091AE02882309F44AC01092AE026CE0FA
:1005F00086E992E00E9441048E7F8093AB0266E11F
:1006000086E992E00E94410469E472E083E493E0A9
:100610000E941D0B6091AB0240E150E083E493E047
:100620000E94A00A8091AB02803811F08438E9F46E
:100630006BE086E992E00E944104C82F63E572E016
:1006400083E493E00E941D0B4AE050E06C2F83E4AA
:1006500093E00E94A00AC23021F481E08093AC02B2
:1006600004C0C13011F41092AC026EE572E083E474
:1006700093E00E94070C0E9460001092AA028091F1
:10068000AC028823D9F065E772E083E493E00E942E
:100690001D0B6091AA0270E04AE050E083E493E011
:1006A0000E94FE0A83E493E00E9410098091AA024E
:1006B000DF91CF911F910F910C945801DF91CF9151
:1006C0001F910F9108951092AF0256984E9BFECF46
:1006D00057980895882311F0579802C0579A5F9849
:1006E00056984E9BFECF8AE08A95F1F700C0569A45
:1006F0005E988AE08A95F1F700C008955798569859
:100700004E9BFECF89B19AE09A95F1F700C0569AB8
:100710005E989AE09A95F1F700C0881F8827881F95
:1007200008958091AF02882361F057988AE08A95F6
:10073000F1F700C056984E9BFECF8AE08A95F1F7FC
:1007400000C0579A5F988AE08A95F1F700C0569AE0
:100750005E988AE08A95F1F700C081E08093AF024D
:100760000895579A5F988AE08A95F1F700C05698E5
:100770004E9BFECF85E08A95F1F7000057981092C6
:10078000AF020895CF93DF93D82FC8E08D2F881F35
:100790008827881F0E946A03DD0FC150B9F7579858
:1007A00056984E9BFECF4F990CC08AE08A95F1F780
:1007B00000C0569A5E98579A8AE08A95F1F700C071
:1007C000C1E08C2FDF91CF9108951F93CF93DF93DA
:1007D000182FD8E0C0E00E947E03CC0FC82BD15068
:1007E000D1F7579A112359F0579856984E9BFECF40
:1007F0008AE08A95F1F700C0569A5E980CC0579A25
:100800005F9856984E9BFECF8AE08A95F1F700C01C
:10081000569A5E9857988AE08A95F1F700C08C2F17
:10082000DF91CF911F910895FC0160830C946303C5
:10083000EF92FF921F93CF93DF931F92CDB7DEB756
:100840007C01142F69830E949103F7018081880F36
:100850000E94C2036981882361F0862F0E94C2032F
:10086000882339F0812F0E94C2030E94B10381E0E6
:1008700001C08FEF0F90DF91CF911F91FF90EF900C
:1008800008950F931F93CF93DF931F92CDB7DEB7D9
:100890008C0169830E949103F8018081880F0E9476
:1008A000C2036981811102C08FEF16C0862F0E949A
:1008B000C2038823C9F30E949103F8018081880F45
:1008C00081600E94C203882379F381E00E94E503DE
:1008D00089830E94B10389810F90DF91CF911F918D
:1008E0000F910895CF93DF93EC016AE20E944104D7
:1008F000482F41606AE2CE01DF91CF910C94180439
:10090000CF93DF93EC016AE20E944104482F4E7FAF
:100910006AE2CE01DF91CF910C941804AF92BF929E
:10092000CF92DF92EF92FF920F931F93CF93DF93BB
:1009300000D01F92CDB7DEB78C017A012A833B83AA
:1009400069830E949103F8018081880F0E94C2038D
:100950006981862F0E94C2030E949103F801808161
:10096000880F81600E94C2032A81A22E3B81B32E90
:1009700000E010E06701F1E0CF1AD1080E151F0565
:1009800084F40C151D0511F481E001C080E00E9483
:10099000E503F50180830F5F1F4FFFEFAF1ABF0A1A
:1009A000EDCF0F900F900F90DF91CF911F910F918E
:1009B000FF90EF90DF90CF90BF90AF900C94B10379
:1009C0000F931F93CF93DF9300D000D000D0CDB70B
:1009D000DEB78B019E012F5F3F4F46E050E061E0A4
:1009E0000E948E04FE01329620E030E0B9016E7F55
:1009F000600F711FCF010197DC018C9190E0982F5F
:100A000088274081842B54E0959587955A95E1F786
:100A1000DB018D939C932E5F3F4F3296263031053C
:100A200029F726960FB6F894DEBF0FBECDBFDF9133
:100A3000CF911F910F910895AF92BF92CF92EF92F5
:100A4000FF920F931F93CF93DF931F92CDB7DEB723
:100A50005C01F42E122F69830E9480046981623048
:100A600021F0643011F0683039F4462F50E055958C
:100A700047955595479501C040E06EE0C5010E943D
:100A800018046AE2C5010E944104482F47706AE2D7
:100A9000C5010E94180487E08F1570F06AE2C50155
:100AA0000E94410498E0F99EB0011124482F462B82
:100AB0006AE2C5010E941804143070F46AE2C501AC
:100AC0000E944104E0E41E9F90011124482F422B14
:100AD0006AE2C5010E9418046BE2C5010E9441044C
:100AE000482F4F616BE2C5010E941804402F69E254
:100AF000C5010E9418044AE06CE2C5010E94180476
:100B000045E86DE2C5010E94180444E86EE2C501A3
:100B10000E9418046EE2C5010E944104482F6EE253
:100B2000C5010E94180448EF65E1C5010E94180440
:100B30004E2D67E1C5010E9418044C2D68E1C501E6
:100B40000E941804C5010F90DF91CF911F910F9162
:100B5000FF90EF90CF90BF90AF900C9472041F92D3
:100B60000F920FB60F9211242F933F934F935F93E1
:100B70006F937F938F939F93AF93BF93EF93FF9365
:100B8000E091B002F091B102309709F00995FF9120
:100B9000EF91BF91AF919F918F917F916F915F91F5
:100BA0004F913F912F910F900FBE0F901F9018956E
:100BB000E89409C097FB3EF49095809570956195F7
:100BC0007F4F8F4F9F4F9923A9F0F92F96E9BB27AD
:100BD0009395F695879577956795B795F111F8CF29
:100BE000FAF4BB0F11F460FF1BC06F5F7F4F8F4F94
:100BF0009F4F16C0882311F096E911C0772321F08A
:100C00009EE8872F762F05C0662371F096E8862F21
:100C100070E060E02AF09A95660F771F881FDAF778
:100C2000880F9695879597F908950BD078C069D06D
:100C300028F06ED018F0952309F05AC05FC0112437
:100C4000A2C07ED0A0F3959FD1F3950F50E0551F21
:100C5000629FF001729FBB27F00DB11D639FAA2711
:100C6000F00DB11DAA1F649F6627B00DA11D661F60
:100C7000829F2227B00DA11D621F739FB00DA11D81
:100C8000621F839FA00D611D221F749F3327A00D3B
:100C9000611D231F849F600D211D822F762F6A2FD7
:100CA00011249F5750408AF0E1F088234AF0EE0F5C
:100CB000FF1FBB1F661F771F881F91505040A9F769
:100CC0009E3F510570F014C05EC05F3FECF3983E4C
:100CD000DCF3869577956795B795F795E7959F5FD0
:100CE000C1F7FE2B880F911D9695879597F908956A
:100CF00097F99F6780E870E060E008959FEF80ECCF
:100D0000089500240A941616170618060906089571
:100D100000240A9412161306140605060895092ED7
:100D20000394000C11F4882352F0BB0F40F4BF2B46
:100D300011F460FF04C06F5F7F4F8F4F9F4F089586
:100D400057FD9058440F551F59F05F3F71F047957C
:100D5000880F97FB991F61F09F3F79F08795089561
:100D6000121613061406551FF2CF4695F1DF08C080
:100D7000161617061806991FF1CF8695710561059D
:100D800008940895E894BB2766277727CB0197F945
:100D900008951F920F920FB60F9211242F933F9335
:100DA0008F939F93AF93BF938091B6029091B702B8
:100DB000A091B802B091B9023091BA020196A11D7A
:100DC000B11D232F2D5F2D3720F02D570196A11D2A
:100DD000B11D2093BA028093B6029093B702A093FC
:100DE000B802B093B9028091B2029091B302A0917F
:100DF000B402B091B5020196A11DB11D8093B2025B
:100E00009093B302A093B402B093B502BF91AF9197
:100E10009F918F913F912F910F900FBE0F901F9038
:100E200018959B01AC017FB7F8948091B202909124
:100E3000B302A091B402B091B50266B5A89B05C0FB
:100E40006F3F19F00196A11DB11D7FBFBA2FA92FC9
:100E5000982F8827860F911DA11DB11D62E0880F74
:100E6000991FAA1FBB1F6A95D1F7BC012DC0FFB700
:100E7000F8948091B2029091B302A091B402B09123
:100E8000B502E6B5A89B05C0EF3F19F00196A11D7C
:100E9000B11DFFBFBA2FA92F982F88278E0F911D44
:100EA000A11DB11DE2E0880F991FAA1FBB1FEA9583
:100EB000D1F7861B970B885E9340C8F221503040D3
:100EC0004040504068517C4F211531054105510586
:100ED00071F60895789484B5826084BD84B581608C
:100EE00084BD85B5826085BD85B5816085BDEEE632
:100EF000F0E0808181608083E1E8F0E01082808111
:100F000082608083808181608083E0E8F0E080817E
:100F100081608083E1EBF0E0808184608083E0EB9E
:100F2000F0E0808181608083EAE7F0E08081846086
:100F300080838081826080838081816080838081E2
:100F4000806880831092C100089508951F920F92C7
:100F50000FB60F9211242F933F934F938F939F932C
:100F6000EF93FF938091C00082FD1DC04091C600A9
:100F70002091FB023091FC022F5F3F4F2F733070A6
:100F80008091FD029091FE022817390771F0E091DF
:100F9000FB02F091FC02E554FD4F40833093FC02CC
:100FA0002093FB0202C08091C600FF91EF919F91B8
:100FB0008F914F913F912F910F900FBE0F901F90E7
:100FC0001895E0914F03F0915003E05CFF4F819141
:100FD000919120813181821B930B8F739070892BAB
:100FE00011F00E94A50708951F920F920FB60F925D
:100FF00011242F933F938F939F93EF93FF9320910F
:101000003F033091400380914103909142032817A0
:10101000390731F48091C1008F7D8093C10014C0E5
:10102000E0914103F0914203E150FD4F2081809116
:1010300041039091420301968F7390709093420305
:10104000809341032093C600FF91EF919F918F9170
:101050003F912F910F900FBE0F901F901895AF9258
:10106000BF92DF92EF92FF920F931F93CF93DF9384
:10107000EC017A018B01DD24403081EE580780E0DD
:10108000680780E0780711F0DD24D39491E0A92E61
:10109000B12CEC89FD89DD2069F0C50108A002C0F2
:1010A000880F991F0A94E2F7808360E079E08DE36E
:1010B00090E005C0108260E874E88EE190E0A8013D
:1010C00097010E94580D21503040404050405695A5
:1010D00047953795279580E12030380720F0DD20AF
:1010E00011F0DD24D6CFE889F9893083EA89FB89BC
:1010F000208319A2EE89FF89408121E030E0C901F7
:101100000C8C02C0880F991F0A94E2F7482B408389
:10111000EE89FF894081C9010D8C02C0880F991F9B
:101120000A94E2F7482B4083EE89FF894081C90188
:101130000E8C02C0880F991F0A94E2F7482B408357
:10114000EE89FF8980810F8C02C0220F331F0A9421
:10115000E2F7209528232083DF91CF911F910F91F3
:10116000FF90EF90DF90BF90AF900895DC011C9648
:10117000ED91FC911D97E05CFF4F219131918081B1
:101180009181281B390B2F733070C9010895DC0140
:101190001C96ED91FC911D97E05CFF4F2081318101
:1011A000E054F040DF01AE5BBF4F8D919C911197F1
:1011B0002817390719F42FEF3FEF07C08D919C9145
:1011C000E80FF91F8081282F30E0C9010895DC0164
:1011D0001C96ED91FC911D97E05CFF4F20813181C1
:1011E000E054F040DF01AE5BBF4F8D919C911197B1
:1011F0002817390719F42FEF3FEF10C08D919C91FC
:101200001197E80FF91F20818D919C9111970196FC
:101210008F73907011969C938E9330E0C90108955E
:10122000DC0191968C919197882339F05496ED9139
:10123000FC915597808186FFF9CF91961C92089575
:10124000CF93DF93EC01EE85FF85E05CFF4F2081BB
:101250003181E054F0402F5F3F4F2F733070DF013A
:10126000AE5BBF4F8D919C91119728173907D1F331
:10127000E05CFF4F80819181E054F040E80FF91F5E
:101280006083EE85FF85E05CFF4F31832083EE892C
:10129000FF89208181E090E00F8C02C0880F991FA8
:1012A0000A94E2F7282B208381E089A3EC89FD8949
:1012B00080818064808381E090E0DF91CF91089508
:1012C00081E00895109246031092450388EE93E062
:1012D000A0E0B0E08093470390934803A0934903B4
:1012E000B0934A0389E892E09093440380934303C8
:1012F0008BEB92E09093500380934F038FEF92E03B
:10130000909352038093510385EC90E090935403A3
:101310008093530384EC90E090935603809355039D
:1013200080EC90E0909358038093570381EC90E019
:1013300090935A038093590382EC90E090935C035E
:1013400080935B0386EC90E090935E0380935D0353
:1013500084E080935F0383E08093600387E0809361
:10136000610385E08093620381E0809363030895C5
:10137000CF93DF930E946A070E94E901C1EED7E094
:101380000E949F022097E1F30E94E107F9CFCF92DC
:10139000DF92EF92FF920F931F93CF93DF937C0125
:1013A0006B018A01C0E0D0E00FC0D6016D916D01E4
:1013B000D701ED91FC910190F081E02DC7010995D5
:1013C000C80FD91F015010400115110571F7CE014A
:1013D000DF91CF911F910F91FF90EF90DF90CF9011
:1013E0000895EF92FF920F931F938C01DC01ED9112
:1013F000FC910190F081E02D6DE009957C01D80110
:10140000ED91FC910190F081E02DC8016AE0099511
:101410009C012E0D3F1DC9011F910F91FF90EF9070
:101420000895CF93DF93EC016115710519F420E065
:1014300030E00FC0DB010D900020E9F71197A61BEB
:10144000B70BE881F9810280F381E02DAD010995A8
:101450009C01C901DF91CF9108954F925F927F92D5
:101460008F929F92AF92BF92CF92DF92EF92FF92B4
:101470000F931F93DF93CF93CDB7DEB7A1970FB62E
:10148000F894DEBF0FBECDBF2C01742ECB012230ED
:1014900008F42AE019A231E2C32ED12CCC0EDD1EB5
:1014A000822E9924AA24BB24672D752FA5019401AF
:1014B0000E94580D79018A01C801B701A501940164
:1014C0000E94480D472D461B0894C108D1084A3098
:1014D00014F4405D01C0495CF6014083E114F1045D
:1014E0000105110521F07E2C5F2DC801DDCFC20161
:1014F000B6010E94110AA1960FB6F894DEBF0FBE86
:10150000CDBFCF91DF911F910F91FF90EF90DF90B2
:10151000CF90BF90AF909F908F907F905F904F90B3
:101520000895DC012115310541F4ED91FC91019004
:10153000F081E02D642F099508950E942D0A0895E9
:10154000CF92DF92EF92FF920F931F936C01E62EE2
:101550009A01FF2400E010E0B801A7010E94910A5F
:101560008C01C6010E94F109080F191FC8011F91C3
:101570000F91FF90EF90DF90CF900895CF92DF9280
:10158000EF92FF920F931F93CF93DF93EC016A01C9
:101590007B012115310541F4E881F9810190F08149
:1015A000E02D642F09951FC02A303105D1F477FF53
:1015B00017C0E881F9810190F081E02D6DE2099575
:1015C0008C0144275527BA014C195D096E097F0922
:1015D000CE012AE00E942D0A9801280F391F04C06D
:1015E0002AE00E942D0A9C01C901DF91CF911F9131
:1015F0000F91FF90EF90DF90CF900895CF92DF9200
:10160000EF92FF920F931F936C017B019A010027C9
:10161000F7FC0095102FB801A7010E94BE0A8C01AB
:10162000C6010E94F109080F191FC8011F910F91EF
:10163000FF90EF90DF90CF9008950E94110A0895D7
:101640007F928F929F92AF92BF92CF92DF92EF9252
:10165000FF920F931F93CF93DF934C017A018B017D
:10166000722ECB01BA01A80197010E94440D882374
:1016700021F0C40160E071E021C0C0E0D0E057017A
:101680006801E894D7F8C601B5012FEF3FEF4FE7A7
:101690005FE70E94440D882351F4C601B5012FEF86
:1016A0003FEF4FE75FE70E947F0C181614F0C1E090
:1016B000D0E0219739F0C40164E071E00E94110A82
:1016C000EC0193C0C801B7012FEF3FEF4FE75FE494
:1016D0000E94400D181654F0C801B7012FEF3FEFDC
:1016E0004FE75FEC0E947F0C882324F4C40168E07C
:1016F00071E0E4CFC801B70120E030E040E050E005
:101700000E947F0C87FD03C0C0E0D0E00EC0D40172
:10171000ED91FC910190F081E02DC4016DE20995FD
:10172000EC0117FB109517F9109520E030E040E030
:101730005FE3DD240BC0CA01B90120E030E040E2E4
:1017400051E40E94830C9B01AC01D394D71498F30D
:10175000C801B7010E941B0C5B016C010E94F00CD8
:101760007B018C01C401B801A7012AE030E00E948E
:10177000910AC80FD91F772039F0C4016CE071E0DD
:101780000E94110AC80FD91FC801B7010E94D805CD
:101790009B01AC01C601B5010E941A0C24C020E0D7
:1017A00030E040E251E40E9415067B018C010E946A
:1017B000EB0C5B016C01CC24B7FCC094DC2CC401A5
:1017C000B601A5012AE030E00E94BE0AC80FD91F69
:1017D000C601B5010E94DA059B01AC01C801B70141
:1017E0000E941A0C7A947720D1F6CE01DF91CF9126
:1017F0001F910F91FF90EF90DF90CF90BF90AF902F
:101800009F908F907F9008950E94200B0895EF92F3
:10181000FF920F931F937C010E94110A8C01C70154
:101820000E94F109080F191FC8011F910F91FF9025
:10183000EF9008955058BB27AA270ED070CA61DADE
:1018400030F066DA20F031F49F3F11F41EF456CAEE
:101850000EF4E095E7FB4CCAE92F72DA80F3BA1771
:10186000620773078407950718F071F49EF58ACA1A
:101870000EF4E0950B2EBA2FA02D0B01B9019001AB
:101880000C01CA01A0011124FF27591B99F0593FEF
:1018900050F4503E68F11A16F040A22F232F342F37
:1018A0004427585FF3CF469537952795A795F04085
:1018B0005395C9F77EF41F16BA0B620B730B840B9A
:1018C000BAF09150A1F0FF0FBB1F661F771F881F52
:1018D000C2F70EC0BA0F621F731F841F48F48795AA
:1018E00077956795B795F7959E3F08F0B3CF939599
:1018F000880F08F09927EE0F9795879508959CD04B
:1019000008F481E008950CD00ACA02DA40F0F9D94F
:1019100030F021F45F3F19F0EBC9511134CAEEC920
:101920000FDA98F39923C9F35523B1F3951B550B9F
:10193000BB27AA2762177307840738F09F5F5F4FA2
:10194000220F331F441FAA1FA9F333D00E2E3AF0E3
:10195000E0E830D091505040E695001CCAF729D0FD
:10196000FE2F27D0660F771F881FBB1F261737074C
:101970004807AB07B0E809F0BB0B802DBF01FF277C
:1019800093585F4F2AF09E3F510568F0B1C9FBC9DB
:101990005F3FECF3983EDCF3869577956795B795B6
:1019A000F7959F5FC9F7880F911D9695879597F9D1
:1019B0000895E1E0660F771F881FBB1F621773074A
:1019C0008407BA0720F0621B730B840BBA0BEE1F5F
:1019D00088F7E095089504D06894B111D4C90895AA
:1019E000B7D988F09F5790F0B92F9927B751A0F039
:1019F000D1F0660F771F881F991F1AF0BA95C9F7A3
:101A000012C0B13081F0BED9B1E00895BBC9672FD3
:101A1000782F8827B85F39F0B93FCCF38695779552
:101A20006795B395D9F73EF490958095709561953B
:101A30007F4F8F4F9F4F0895990F0008550FAA0BA6
:101A4000E0E8FEEF16161706E807F907C0F01216D1
:101A50001306E407F50798F0621B730B840B950BD4
:101A600039F40A2661F0232B242B252B21F4089529
:101A70000A2609F4A140A6958FEF811D811D0895C6
:101A8000DBDF08F48FEF0895D7DF880B990B0895FB
:101A9000DB018F939F930E94990DBF91AF91A29FFD
:101AA000800D911DA39F900DB29F900D112408955C
:101AB000A1E21A2EAA1BBB1BFD010DC0AA1FBB1F52
:101AC000EE1FFF1FA217B307E407F50720F0A21BC4
:101AD000B30BE40BF50B661F771F881F991F1A9431
:101AE00069F760957095809590959B01AC01BD015B
:101AF000CF010895052E97FB1EF400940E94910DCE
:101B000057FD07D00E94580D07FC03D04EF40C94EB
:101B1000910D50954095309521953F4F4F4F5F4F18
:101B2000089590958095709561957F4F8F4F9F4F49
:101B300008950E94AA0DA59F900DB49F900DA49F9B
:101B4000800D911D11240895EE0FFF1F0590F49153
:101B5000E02D0994A29FB001B39FC001A39F700D17
:101B6000811D1124911DB29F700D811D1124911DA5
:061B70000895F894FFCF78
:101B76006E616E00696E66006F7666002E00000765
:101B860053657474696E6720757020616363656C54
:101B960065726F6D65746572732E2E2E00536361C8
:101BA6006C653A200044617461206F64723A2000CB
:101BB600536C656570206F64723A200041736C65E2
:101BC600657020636F756E743A20004D6F74696F8F
:101BD6006E207468726573686F6C643A20004465A1
:101BE600626F756E636520636F756E743A2000438D
:101BF6006C656172206661696C656400436C656141
:101C0600722073756363656564004D4D41383435E4
:101C16003251206973206F6E2D6C696E652E2E2EE3
:101C260000436F756C64206E6F7420636F6E6E6513
:101C3600637420746F204D4D41383435325100574E
:101C4600454C434F4D4520544F20424C494E44533A
:101C56004146452E2E2E002B2B2B2B2B2B2B2B2BA5
:101C66002B2B2B2B2B2B2B2B2B2B2B2B2B2B2B2BBE
:101C76002B2B2B2B2B2B2B2B2B2B2B2B2B2B2B2BAE
:101C86002B2B2B2B2B2B2B2B2B2B2B2B2B2B2B2B9E
:101C96002B00506F776572204C6576656C20417419
:101CA6003A20005600414343204F44523A20004117
:101CB600434320313A20000900494E5420313A204E
:101CC6003078005359534D4F443A20307800436CD6
:101CD600656172696E6720696E746572727570747B
:101CE600732E2E2E00536C656570204163746976E1
:101CF60065203D2000000000002009C709B608E75E
:061D060008C708100900E7
:00000001FF
