:100000000C9463000C948B000C948B000C948B006C
:100010000C949A010C94D3010C948B000C94B905A8
:100020000C948B000C948B000C948B000C948B0024
:100030000C948B000C948B000C948B000C948B0014
:100040000C94D3060C948B000C9403080C94510868
:100050000C948B000C948B000C948B000C948B00F4
:100060000C948B000C948B000000000024002700EF
:100070002A0000000000250028002B0000000000DE
:1000800023002600290004040404040404040202DA
:100090000202020203030303030301020408102007
:1000A0004080010204081020010204081020000012
:1000B0000007000201000003040600000000000029
:1000C0000000FF01BF0911241FBECFEFD8E0DEBF43
:1000D000CDBF11E0A0E0B1E0E0E3FCE102C005909B
:1000E0000D92A43FB107D9F722E0A4EFB1E001C01F
:1000F0001D92A53CB207E1F710E0C6ECD0E004C0C9
:100100002297FE010E94030EC23CD107C9F70E944C
:10011000150A0C94160E0C9400006CE084EF91E02C
:100120000E94620466E184EF91E00E94620461E053
:1001300072E084EF91E00C94EA0486E084B984E0F4
:1001400087B980E48AB98FEE84B984EF87B98FE1EB
:100150008AB90895813079F040F0823091F490911D
:100160006D00946090936D001DC090916B00906144
:1001700090936B0017C090916C00986090936C0006
:1001800011C090916B00906190936B0090916C0006
:10019000986090936C0090916D00946090936D00C6
:1001A000833068F49091680021E030E0082E01C0AF
:1001B000220F0A94EAF7922B909368000895809199
:1001C00068008760809368000895CF92EF920F9344
:1001D00083E00E94AA006FE071E083EA92E00E944F
:1001E000640CCC24C39480E1E82E09E223E047E0CC
:1001F00068E084EF91E00E9426050F91EF90CF9088
:100200000895813079F040F0823091F490916D0042
:100210009B7F90936D001DC090916B009F7E90938B
:100220006B0017C090916C00977F90936C0011C089
:1002300090916B009F7E90936B0090916C00977FE4
:1002400090936C0090916D009B7F90936D00833034
:1002500070F49091680021E030E0082E01C0220F78
:100260000A94EAF7209529232093680008951092B4
:1002700068000895CF93C82F10920E0210920D02BD
:1002800010920B0210920C0293B7917F946093BF6F
:1002900093B7916093BFF89485B7806685BF8F7DD3
:1002A00085BF80E00E94AA0081E00E94AA0082E04F
:1002B0000E94010182E0CC2319F00E94010102C0DA
:1002C0000E94AA000E948D007894889583B78E7F43
:1002D00083BF82E0CF910C94AA00CF93F894C09191
:1002E0007C008EE480937C0062E070E080E090E02F
:1002F0000E941B0780917A00806480937A0080912D
:100300007A0086FDFCCF209178008091790030E062
:10031000382B442737FD4095542FC0937C007894A8
:1003200064EB7BE281E190E00E94D70DCA01B90144
:10033000CF9108951F920F920FB60F9211242F9311
:100340003F934F935F936F937F938F939F93AF935D
:10035000BF93EF93FF93F89484E00E94AF07892B3B
:1003600081F06CE084EF91E00E9462048E7F8093C4
:10037000070266E184EF91E00E94620481E08093CD
:100380000E027894FF91EF91BF91AF919F918F9161
:100390007F916F915F914F913F912F910F900FBE81
:1003A0000F901F9018951F920F920FB60F92112465
:1003B0002F933F934F935F936F937F938F939F936D
:1003C000AF93BF93EF93FF93F89483E00E94AF073E
:1003D000892B19F081E080930D027894FF91EF91C1
:1003E000BF91AF919F918F917F916F915F914F914D
:1003F0003F912F910F900FBE0F901F9018956DE1B8
:1004000084EF91E00C9435048F929F92AF92BF924B
:10041000CF92DF92EF92FF92CF930E949D0078944B
:1004200010920E0210920D0210920B02109209020D
:100430001092080240E052EC61E070E083EA92E042
:100440000E948C0883EA92E00E94BD098823D1F3C0
:1004500083EA92E00E946D0968EE73E080E090E02C
:100460000E941B076DE084EF91E00E946204C82F98
:100470008A3251F481E080930A026CE271E083EAEF
:1004800092E00E94640C15C065EC71E083EA92E092
:100490000E947A0B40E150E06C2F83EA92E00E94C8
:1004A000FD0A63E471E083EA92E00E94640C10921A
:1004B0000A0261E671E083EA92E00E94640C69E757
:1004C00071E083EA92E00E94640C0E946D016B016E
:1004D0007C0167E971E083EA92E00E947A0BC70130
:1004E000B60128EE33E040E050E00E94D70D49010C
:1004F0005A016B017C012AE030E0B501A40183EAD6
:1005000092E00E941B0B67E771E083EA92E00E9491
:100510007A0B2AE030E0B701A60183EA92E00E945C
:100520001B0B68EA71E083EA92E00E94640C6AEABD
:1005300071E083EA92E00E947A0B4AE050E067E0C3
:1005400070E083EA92E00E945B0B64EB71E083EA67
:1005500092E00E947A0B60910A0270E04AE050E05B
:1005600083EA92E00E945B0B69E771E083EA92E024
:100570000E94640C64EC79E080E090E00E941B072C
:10058000CF91FF90EF90DF90CF90BF90AF909F9072
:100590008F900C94E5000F931F93CF93DF9380917E
:1005A0000B02811110920B0280910D02882309F435
:1005B00042C080910A028823F1F161E072E084EF89
:1005C00091E00E94EA0410920D02C1E0D2E005EF32
:1005D00011E069917991882777FD8095982F0E9485
:1005E000E40520E030E040E85BE30E941F06F801EC
:1005F00061937193819391938F01F2E0C730DF078C
:1006000041F7C5EFD1E0499159916991799124E081
:1006100030E083EA92E00E94610C6CEB71E083EAC7
:1006200092E00E947A0B82E0C130D80761F783EA3A
:1006300092E00E944E0A80910E028823D9F1109216
:100640000E026EEB71E083EA92E00E947A0B6091F9
:10065000070240E150E083EA92E00E94FD0A8091A7
:100660000702803811F08438E9F46BE084EF91E000
:100670000E946204C82F68EC71E083EA92E00E9455
:100680007A0B4AE050E06C2F83EA92E00E94FD0A68
:10069000C23021F481E08093090204C0C13011F41A
:1006A0001092090263ED71E083EA92E00E94640C0B
:1006B0000E948D0080910902882361F083EA92E014
:1006C0000E946D096AE070E080E090E00E941B07E4
:1006D00081E00FC080910802882389F083EA92E0CC
:1006E0000E946D096AE070E080E090E00E941B07C4
:1006F00080E0DF91CF911F910F910C943A01DF912F
:10070000CF911F910F91089510920F0256984E9B12
:10071000FECF57980895882311F0579802C0579A32
:100720005F9856984E9BFECF85E08A95F1F70000C2
:10073000569A5E9885E08A95F1F7000008955798DB
:1007400056984E9BFECF89B195E09A95F1F700003F
:10075000569A5E9895E09A95F1F70000881F8827D1
:10076000881F089580910F02882361F0579885E0D3
:100770008A95F1F7000056984E9BFECF85E08A954A
:10078000F1F70000579A5F9885E08A95F1F700002D
:10079000569A5E9885E08A95F1F7000081E0809393
:1007A0000F020895579A5F9885E08A95F1F7000047
:1007B00056984E9BFECF82E08A95F1F700C057987D
:1007C00010920F020895CF93DF93D82FC8E08D2F9A
:1007D000881F8827881F0E948B03DD0FC150B9F73F
:1007E000579856984E9BFECF4F990CC085E08A953E
:1007F000F1F70000569A5E98579A85E08A95F1F7CE
:100800000000C1E08C2FDF91CF9108951F93CF930B
:10081000DF93182FD8E0C0E00E949F03CC0FC82BB5
:10082000D150D1F7579A112359F0579856984E9BAB
:10083000FECF85E08A95F1F70000569A5E980CC0CD
:10084000579A5F9856984E9BFECF85E08A95F1F7B0
:100850000000569A5E98579885E08A95F1F7000057
:100860008C2FDF91CF911F910895FC0160830C9430
:100870008403EF92FF921F93CF93DF931F92CDB724
:10088000DEB77C01142F69830E94B203F7018081D7
:10089000880F0E94E3036981882361F0862F0E94FC
:1008A000E303882339F0812F0E94E3030E94D203DF
:1008B00081E001C08FEF0F90DF91CF911F91FF90EA
:1008C000EF9008950F931F93CF93DF931F92CDB7AF
:1008D000DEB78C0169830E94B203F8018081880F22
:1008E0000E94E3036981811102C08FEF16C0862F39
:1008F0000E94E3038823C9F30E94B203F8018081B8
:10090000880F81600E94E303882379F381E00E94CD
:10091000060489830E94D20389810F90DF91CF91D1
:100920001F910F910895CF93DF93EC016AE20E942B
:100930006204482F41606AE2CE01DF91CF910C94AE
:100940003904CF93DF93EC016AE20E946204482FDE
:100950004E7F6AE2CE01DF91CF910C943904CF92A1
:10096000DF92EF92FF920F931F93CF93DF931F922B
:10097000CDB7DEB76C017A01890169830E94B203A9
:10098000F6018081880F0E94E3036981862F0E940F
:10099000E3030E94B203F6018081880F81600E9408
:1009A000E3036801C601801B910B8E159F053CF483
:1009B00081E00E940604F60181936F01F3CF0F904E
:1009C000DF91CF911F910F91FF90EF90DF90CF902B
:1009D0000C94D2030F931F93CF93DF9300D000D0DA
:1009E00000D0CDB7DEB78B019E012F5F3F4F46E0B1
:1009F00050E061E00E94AF04FE01329620E030E05A
:100A0000B9016E7F600F711FCF010197DC018C91DE
:100A100090E0982F88274081842B54E09595879506
:100A20005A95E1F7DB018D939C932E5F3F4F3296F1
:100A30002630310529F726960FB6F894DEBF0FBE93
:100A4000CDBFDF91CF911F910F910895AF92BF92CB
:100A5000CF92EF92FF920F931F93CF93DF931F924A
:100A6000CDB7DEB75C01F42E122F69830E94A1047A
:100A70006981623021F0643011F0683039F4462F1A
:100A800050E0559547955595479501C040E06EE07B
:100A9000C5010E9439046AE2C5010E946204482F20
:100AA00047706AE2C5010E94390487E08F1570F033
:100AB0006AE2C5010E94620498E0F99EB001112427
:100AC000482F462B6AE2C5010E943904143070F4A5
:100AD0006AE2C5010E946204E0E41E9F90011124B5
:100AE000482F422B6AE2C5010E9439046BE2C5011E
:100AF0000E946204482F4F616BE2C5010E943904D5
:100B0000402F69E2C5010E9439044AE06CE2C50148
:100B10000E94390445E86DE2C5010E94390444E8A9
:100B20006EE2C5010E9439046EE2C5010E946204B2
:100B3000482F6EE2C5010E94390448EF65E1C50106
:100B40000E9439044E2D67E1C5010E9439044C2DE5
:100B500068E1C5010E943904C5010F90DF91CF9172
:100B60001F910F91FF90EF90CF90BF90AF900C949A
:100B700093041F920F920FB60F9211242F933F935D
:100B80004F935F936F937F938F939F93AF93BF9395
:100B9000EF93FF93E0911002F0911102309709F06A
:100BA0000995FF91EF91BF91AF919F918F917F91A7
:100BB0006F915F914F913F912F910F900FBE0F90CA
:100BC0001F901895E89409C097FB3EF49095809586
:100BD000709561957F4F8F4F9F4F9923A9F0F92F03
:100BE00096E9BB279395F695879577956795B79581
:100BF000F111F8CFFAF4BB0F11F460FF1BC06F5F67
:100C00007F4F8F4F9F4F16C0882311F096E911C078
:100C1000772321F09EE8872F762F05C0662371F099
:100C200096E8862F70E060E02AF09A95660F771FAD
:100C3000881FDAF7880F9695879597F908950BD056
:100C400078C069D028F06ED018F0952309F05AC00A
:100C50005FC01124A2C07ED0A0F3959FD1F3950F61
:100C600050E0551F629FF001729FBB27F00DB11D30
:100C7000639FAA27F00DB11DAA1F649F6627B00DC0
:100C8000A11D661F829F2227B00DA11D621F739FA9
:100C9000B00DA11D621F839FA00D611D221F749FB7
:100CA0003327A00D611D231F849F600D211D822FFE
:100CB000762F6A2F11249F5750408AF0E1F0882345
:100CC0004AF0EE0FFF1FBB1F661F771F881F915052
:100CD0005040A9F79E3F510570F014C05EC05F3FC1
:100CE000ECF3983EDCF3869577956795B795F79585
:100CF000E7959F5FC1F7FE2B880F911D969587950D
:100D000097F9089597F99F6780E870E060E008958B
:100D10009FEF80EC089500240A9416161706180613
:100D20000906089500240A941216130614060506EF
:100D30000895092E0394000C11F4882352F0BB0F80
:100D400040F4BF2B11F460FF04C06F5F7F4F8F4FE3
:100D50009F4F089557FD9058440F551F59F05F3F1E
:100D600071F04795880F97FB991F61F09F3F79F0CD
:100D700087950895121613061406551FF2CF46954F
:100D8000F1DF08C0161617061806991FF1CF8695D1
:100D90007105610508940895E894BB2766277727B5
:100DA000CB0197F908951F920F920FB60F9211245D
:100DB0002F933F938F939F93AF93BF93809116028E
:100DC00090911702A0911802B091190230911A0265
:100DD0000196A11DB11D232F2D5F2D3720F02D571A
:100DE0000196A11DB11D20931A02809316029093C3
:100DF0001702A0931802B0931902809112029091E9
:100E00001302A0911402B09115020196A11DB11D0B
:100E10008093120290931302A0931402B0931502D0
:100E2000BF91AF919F918F913F912F910F900FBEE6
:100E30000F901F9018959B01AC017FB7F89480919B
:100E4000120290911302A0911402B091150266B59E
:100E5000A89B05C06F3F19F00196A11DB11D7FBF72
:100E6000BA2FA92F982F8827860F911DA11DB11D7C
:100E700062E0880F991FAA1FBB1F6A95D1F7BC01BA
:100E80002DC0FFB7F8948091120290911302A091A7
:100E90001402B0911502E6B5A89B05C0EF3F19F00A
:100EA0000196A11DB11DFFBFBA2FA92F982F88272A
:100EB0008E0F911DA11DB11DE2E0880F991FAA1F81
:100EC000BB1FEA95D1F7861B970B885E9340C8F24B
:100ED000215030404040504068517C4F2115310531
:100EE0004105510571F60895789484B5826084BDFA
:100EF00084B5816084BD85B5826085BD85B581601E
:100F000085BDEEE6F0E0808181608083E1E8F0E07D
:100F10001082808182608083808181608083E0E8AC
:100F2000F0E0808181608083E1EBF0E0808184608B
:100F30008083E0EBF0E0808181608083EAE7F0E08D
:100F400080818460808380818260808380818160F1
:100F500080838081806880831092C1000895682F0B
:100F600070E0CB0182559F4FFC012491CB01865646
:100F70009F4FFC0144916A577F4FFB019491992345
:100F800019F420E030E03CC0222351F1233071F00D
:100F9000243028F42130A1F0223011F514C026307D
:100FA000B1F02730C1F02430D9F404C08091800022
:100FB0008F7703C0809180008F7D8093800010C068
:100FC00084B58F7702C084B58F7D84BD09C08091C0
:100FD000B0008F7703C08091B0008F7D8093B00008
:100FE000892F90E0880F991F84589F4FFC01A5918D
:100FF000B4918C9120E030E0842311F021E030E0C6
:10100000C901089508951F920F920FB60F921124EF
:101010002F933F934F938F939F93EF93FF938091E1
:10102000C00082FD1DC04091C60020915B0230913E
:101030005C022F5F3F4F2F73307080915D02909163
:101040005E022817390771F0E0915B02F0915C02B3
:10105000E55EFD4F408330935C0220935B0202C04B
:101060008091C600FF91EF919F918F914F913F9199
:101070002F910F900FBE0F901F901895E091AF0227
:10108000F091B002E05CFF4F81919191208131811C
:10109000821B930B8F739070892B11F00E940208B2
:1010A00008951F920F920FB60F9211242F933F9322
:1010B0008F939F93EF93FF9320919F023091A00213
:1010C0008091A1029091A2022817390731F48091F2
:1010D000C1008F7D8093C10014C0E091A102F09106
:1010E000A202E15AFD4F20818091A1029091A202BB
:1010F00001968F7390709093A2028093A102209327
:10110000C600FF91EF919F918F913F912F910F908A
:101110000FBE0F901F901895AF92BF92DF92EF9283
:10112000FF920F931F93CF93DF93EC017A018B0112
:10113000DD24403081EE580780E0680780E07807C2
:1011400011F0DD24D39491E0A92EB12CEC89FD8916
:10115000DD2069F0C50108A002C0880F991F0A941C
:10116000E2F7808360E079E08DE390E005C01082D3
:1011700060E874E88EE190E0A80197010E94B50D47
:10118000215030404040504056954795379527951F
:1011900080E12030380720F0DD2011F0DD24D6CFAB
:1011A000E889F9893083EA89FB89208319A2EE89CD
:1011B000FF89408121E030E0C9010C8C02C0880F1A
:1011C000991F0A94E2F7482B4083EE89FF894081FA
:1011D000C9010D8C02C0880F991F0A94E2F7482BB1
:1011E0004083EE89FF894081C9010E8C02C0880FBF
:1011F000991F0A94E2F7482B4083EE89FF8980818A
:101200000F8C02C0220F331F0A94E2F72095282387
:101210002083DF91CF911F910F91FF90EF90DF908E
:10122000BF90AF900895DC011C96ED91FC911D9745
:10123000E05CFF4F2191319180819181281B390B16
:101240002F733070C9010895DC011C96ED91FC915B
:101250001D97E05CFF4F20813181E054F040DF01B9
:10126000AE5BBF4F8D919C9111972817390719F4E8
:101270002FEF3FEF07C08D919C91E80FF91F808100
:10128000282F30E0C9010895DC011C96ED91FC91F6
:101290001D97E05CFF4F20813181E054F040DF0179
:1012A000AE5BBF4F8D919C9111972817390719F4A8
:1012B0002FEF3FEF10C08D919C911197E80FF91F10
:1012C00020818D919C91119701968F73907011964A
:1012D0009C938E9330E0C9010895DC0191968C9126
:1012E0009197882339F05496ED91FC915597808120
:1012F00086FFF9CF91961C920895CF93DF93EC016E
:10130000EE85FF85E05CFF4F20813181E054F040A5
:101310002F5F3F4F2F733070DF01AE5BBF4F8D915A
:101320009C91119728173907D1F3E05CFF4F80811A
:101330009181E054F040E80FF91F6083EE85FF854E
:10134000E05CFF4F31832083EE89FF89208181E0BB
:1013500090E00F8C02C0880F991F0A94E2F7282BA7
:10136000208381E089A3EC89FD898081806480836A
:1013700081E090E0DF91CF91089581E0089510928F
:10138000A6021092A50288EE93E0A0E0B0E0809360
:10139000A7029093A802A093A902B093AA0288EE94
:1013A00091E09093A4028093A3028BE192E090934A
:1013B000B0028093AF028FE592E09093B2028093E7
:1013C000B10285EC90E09093B4028093B30284EC78
:1013D00090E09093B6028093B50280EC90E09093F9
:1013E000B8028093B70281EC90E09093BA028093A8
:1013F000B90282EC90E09093BC028093BB0286EC31
:1014000090E09093BE028093BD0284E08093BF027F
:1014100083E08093C00287E08093C10285E08093DF
:10142000C20281E08093C3020895CF93DF930E94AC
:1014300074070E940402CEE3D8E00E94CB022097FA
:10144000E1F30E943E08F9CFCF92DF92EF92FF9234
:101450000F931F93CF93DF937C016B018A01C0E050
:10146000D0E00FC0D6016D916D01D701ED91FC91D7
:101470000190F081E02DC7010995C80FD91F0150D7
:1014800010400115110571F7CE01DF91CF911F9129
:101490000F91FF90EF90DF90CF900895EF92FF9221
:1014A0000F931F938C01DC01ED91FC910190F08171
:1014B000E02D6DE009957C01D801ED91FC91019042
:1014C000F081E02DC8016AE009959C012E0D3F1DB9
:1014D000C9011F910F91FF90EF900895CF93DF9373
:1014E000EC016115710519F420E030E00FC0DB015B
:1014F0000D900020E9F71197A61BB70BE881F98141
:101500000280F381E02DAD0109959C01C901DF91B5
:10151000CF9108954F925F927F928F929F92AF9258
:10152000BF92CF92DF92EF92FF920F931F93DF93C0
:10153000CF93CDB7DEB7A1970FB6F894DEBF0FBE3D
:10154000CDBF2C01742ECB01223008F42AE019A261
:1015500031E2C32ED12CCC0EDD1E822E9924AA247A
:10156000BB24672D752FA50194010E94B50D79014B
:101570008A01C801B701A50194010E94A50D472D5C
:10158000461B0894C108D1084A3014F4405D01C0DC
:10159000495CF6014083E114F1040105110521F0D5
:1015A0007E2C5F2DC801DDCFC201B6010E946E0AFC
:1015B000A1960FB6F894DEBF0FBECDBFCF91DF91DD
:1015C0001F910F91FF90EF90DF90CF90BF90AF9061
:1015D0009F908F907F905F904F900895DC01211530
:1015E000310541F4ED91FC910190F081E02D642FE3
:1015F000099508950E948A0A0895CF92DF92EF928A
:10160000FF920F931F936C01E62E9A01FF2400E0D6
:1016100010E0B801A7010E94EE0A8C01C6010E94E9
:101620004E0A080F191FC8011F910F91FF90EF90EC
:10163000DF90CF900895CF92DF92EF92FF920F93B9
:101640001F93CF93DF93EC016A017B0121153105D4
:1016500041F4E881F9810190F081E02D642F099532
:101660001FC02A303105D1F477FF17C0E881F98116
:101670000190F081E02D6DE209958C0144275527FA
:10168000BA014C195D096E097F09CE012AE00E945A
:101690008A0A9801280F391F04C02AE00E948A0A8A
:1016A0009C01C901DF91CF911F910F91FF90EF90A5
:1016B000DF90CF900895CF92DF92EF92FF920F9339
:1016C0001F936C017B019A010027F7FC0095102FF6
:1016D000B801A7010E941B0B8C01C6010E944E0A93
:1016E000080F191FC8011F910F91FF90EF90DF9015
:1016F000CF9008950E946E0A08957F928F929F92D4
:10170000AF92BF92CF92DF92EF92FF920F931F930F
:10171000CF93DF934C017A018B01722ECB01BA017A
:10172000A80197010E94A10D882321F0C40160E067
:1017300071E021C0C0E0D0E057016801E894D7F81B
:10174000C601B5012FEF3FEF4FE75FE70E94A10D04
:10175000882351F4C601B5012FEF3FEF4FE75FE754
:101760000E94DC0C181614F0C1E0D0E0219739F08B
:10177000C40164E071E00E946E0AEC0193C0C801EC
:10178000B7012FEF3FEF4FE75FE40E949D0D181662
:1017900054F0C801B7012FEF3FEF4FE75FEC0E9415
:1017A000DC0C882324F4C40168E071E0E4CFC801B4
:1017B000B70120E030E040E050E00E94DC0C87FD03
:1017C00003C0C0E0D0E00EC0D401ED91FC910190C7
:1017D000F081E02DC4016DE20995EC0117FB109535
:1017E00017F9109520E030E040E05FE3DD240BC006
:1017F000CA01B90120E030E040E251E40E94E00C6F
:101800009B01AC01D394D71498F3C801B7010E948F
:10181000780C5B016C010E944D0D7B018C01C401B1
:10182000B801A7012AE030E00E94EE0AC80FD91FD4
:10183000772039F0C4016CE071E00E946E0AC80F95
:10184000D91FC801B7010E94E2059B01AC01C60186
:10185000B5010E94770C24C020E030E040E251E462
:101860000E941F067B018C010E94480D5B016C01E8
:10187000CC24B7FCC094DC2CC401B601A5012AE03D
:1018800030E00E941B0BC80FD91FC601B5010E9492
:10189000E4059B01AC01C801B7010E94770C7A9462
:1018A0007720D1F6CE01DF91CF911F910F91FF905C
:1018B000EF90DF90CF90BF90AF909F908F907F90F0
:1018C00008950E947D0B0895EF92FF920F931F934E
:1018D0007C010E946E0A8C01C7010E944E0A080F0B
:1018E000191FC8011F910F91FF90EF900895505854
:1018F000BB27AA270ED01DCA0EDA30F013DA20F06B
:1019000031F49F3F11F41EF403CA0EF4E095E7FB97
:10191000F9C9E92F1FDA80F3BA1762077307840742
:10192000950718F071F49EF537CA0EF4E0950B2E6A
:10193000BA2FA02D0B01B90190010C01CA01A00121
:101940001124FF27591B99F0593F50F4503E68F17C
:101950001A16F040A22F232F342F4427585FF3CFBD
:10196000469537952795A795F0405395C9F77EF48E
:101970001F16BA0B620B730B840BBAF09150A1F0D7
:10198000FF0FBB1F661F771F881FC2F70EC0BA0F5D
:10199000621F731F841F48F4879577956795B795E5
:1019A000F7959E3F08F0B3CF9395880F08F09927DD
:1019B000EE0F9795879508959CD008F481E00895DF
:1019C0000CD0B7C9AFD940F0A6D930F021F45F3FB1
:1019D00019F098C95111E1C99BC9BCD998F3992351
:1019E000C9F35523B1F3951B550BBB27AA276217E3
:1019F0007307840738F09F5F5F4F220F331F441F28
:101A0000AA1FA9F333D00E2E3AF0E0E830D091505F
:101A10005040E695001CCAF729D0FE2F27D0660F4C
:101A2000771F881FBB1F261737074807AB07B0E88B
:101A300009F0BB0B802DBF01FF2793585F4F2AF0A1
:101A40009E3F510568F05EC9A8C95F3FECF3983E20
:101A5000DCF3869577956795B795F7959F5FC9F7FE
:101A6000880F911D9695879597F90895E1E0660F87
:101A7000771F881FBB1F621773078407BA0720F000
:101A8000621B730B840BBA0BEE1F88F7E095089569
:101A900004D06894B11181C9089564D988F09F5722
:101AA00090F0B92F9927B751A0F0D1F0660F771FAA
:101AB000881F991F1AF0BA95C9F712C0B13081F08A
:101AC0006BD9B1E0089568C9672F782F8827B85F70
:101AD00039F0B93FCCF3869577956795B395D9F7EB
:101AE0003EF490958095709561957F4F8F4F9F4FF5
:101AF0000895990F0008550FAA0BE0E8FEEF16169F
:101B00001706E807F907C0F012161306E407F507F1
:101B100098F0621B730B840B950B39F40A2661F065
:101B2000232B242B252B21F408950A2609F4A14008
:101B3000A6958FEF811D811D0895DBDF08F48FEFDF
:101B40000895D7DF880B990B0895DB018F939F933E
:101B50000E94F60DBF91AF91A29F800D911DA39F92
:101B6000900DB29F900D11240895A1E21A2EAA1B88
:101B7000BB1BFD010DC0AA1FBB1FEE1FFF1FA2173D
:101B8000B307E407F50720F0A21BB30BE40BF50B3A
:101B9000661F771F881F991F1A9469F760957095C3
:101BA000809590959B01AC01BD01CF010895052E54
:101BB00097FB1EF400940E94EE0D57FD07D00E9483
:101BC000B50D07FC03D04EF40C94EE0D50954095E6
:101BD000309521953F4F4F4F5F4F089590958095D9
:101BE000709561957F4F8F4F9F4F08950E94070E0C
:101BF000A59F900DB49F900DA49F800D911D112461
:101C00000895EE0FFF1F0590F491E02D0994A29F17
:101C1000B001B39FC001A39F700D811D1124911DC0
:101C2000B29F700D811D1124911D0895F894FFCF6E
:101C30006E616E00696E66006F7666002E0000535E
:101C4000657474696E6720757020616363656C6587
:101C5000726F6D65746572732E2E2E004D4D413876
:101C600034353251206973206F6E2D6C696E652E8C
:101C70002E2E00436F756C64206E6F7420636F6E40
:101C80006E65637420746F204D4D41383435325188
:101C90000057454C434F4D4520544F20424C494E30
:101CA00044534146452E2E2E002B2B2B2B2B2B2B1A
:101CB0002B2B2B2B2B2B2B2B2B2B2B2B2B2B2B2B74
:101CC0002B2B2B2B2B2B00506F776572204C6576BE
:101CD000656C2041743A20005600414343204F4434
:101CE000523A200041434320313A20000900494E36
:101CF0005420313A203078005359534D4F443A2004
:101D0000307800436C656172696E6720696E747328
:101D10002E2E2E00000000007D09240A130944091C
:041D200024096D091C
:00000001FF
