:100000000C9463000C948B000C948B000C943302C2
:100010000C9446020C948B000C948B000C940507F6
:100020000C948B000C948B000C948B000C948B0024
:100030000C948B000C948B000C948B000C948B0014
:100040000C948E090C948B000C94A40B0C94F20B62
:100050000C948B000C948B000C948B000C948B00F4
:100060000C948B000C948B000000000024002700EF
:100070002A0000000000250028002B0000000000DE
:1000800023002600290004040404040404040202DA
:100090000202020203030303030301020408102007
:1000A0004080010204081020010204081020000012
:1000B0000007000201000003040600000000000029
:1000C00000007502600D11241FBECFEFD8E0DEBF27
:1000D000CDBF12E0A0E0B1E0EAEBF1E202C0059092
:1000E0000D92AA3DB107D9F723E0AAEDB2E001C015
:1000F0001D92A23DB207E1F710E0C6ECD0E004C0CB
:100100002297FE010E94C810C23CD107C9F70E9485
:10011000B60D0C94DB100C9400006CE088EF92E0BC
:100120000E94970566E188EF92E00E94970565E0DE
:1001300073E088EF92E00E94360681E0089582E045
:1001400084B984E087B98CE18AB915B818B81BB8AE
:1001500022982A9A87B1847F87B988B18A6088B942
:100160008AB18F718AB95D9A0895CF93DF936CE05D
:1001700088EF92E00E9497058E7F8093170366E1D7
:1001800088EF92E00E94970560E171E080EB93E0D8
:100190000E94380F6091170340E150E080EB93E03C
:1001A0000E94BB0E80911703803811F08438B1F49F
:1001B0006BE088EF92E00E949705D82F6AE171E02A
:1001C00080EB93E00E94380F4AE050E06D2F80EB07
:1001D00093E00E94BB0EC1E0D23009F0C0E065E2BE
:1001E00071E080EB93E00E9422100E948D008C2F22
:1001F000DF91CF910895CF93F894C0917C008EE465
:1002000080937C0062E070E080E090E00E94D6097C
:1002100080917A00806480937A0080917A0086FDD4
:10022000FCCF209178008091790030E0382B442772
:1002300037FD4095542FC0937C00789464EB7BE2AB
:1002400081E190E00E949C10CA01B901CF9108950C
:10025000882341F0813061F490916C009860909314
:100260006C0012C090916B00946090936B000CC076
:1002700090916B00946090936B0090916C009860EB
:1002800090936C00823068F49091680021E030E037
:10029000082E01C0220F0A94EAF7922B909368006F
:1002A0000895809168008360809368000895CF92DC
:1002B000EF920F9382E00E9428016CE371E080EBE3
:1002C00093E00E94221069E571E080EB93E00E94C8
:1002D000380F4AE050E068E070E080EB93E00E9465
:1002E000190F61E671E080EB93E00E94380F4AE05D
:1002F00050E067E070E080EB93E00E94190F6CE63D
:1003000071E080EB93E00E94380F4AE050E063E038
:1003100070E080EB93E00E94190F68E771E080EBDA
:1003200093E00E94380F4AE050E069E270E080EB11
:1003300093E00E94190F67E871E080EB93E00E9460
:10034000380F4AE050E060E170E080EB93E00E94FB
:10035000190F6AE971E080EB93E00E94380F4AE0E0
:1003600050E061E070E080EB93E00E94190F69E3D8
:1003700072E080EB93E00E942210CC24C39480E1D1
:10038000E82E09E223E047E068E088EF92E00E946F
:1003900072060F91EF90CF900895882341F081303D
:1003A00061F490916C00977F90936C0012C09091D3
:1003B0006B009B7F90936B000CC090916B009B7FB8
:1003C00090936B0090916C00977F90936C008430B9
:1003D00070F49091680021E030E0082E01C0220FF7
:1003E0000A94EAF720952923209368000895109233
:1003F00068000895CF93C82F10921B0310921A0320
:1004000093B7917F946093BF93B7916093BFF89433
:1004100085B7806685BF8F7D85BF80E00E942801FB
:1004200081E0CC2319F00E94280102C00E94CD0176
:100430000E948D00811103C06BEA71E002C068EB7D
:1004400071E080EB93E00E9422107894889593B736
:100450009E7F93BFC11103C081E00E9428011092CA
:100460001903CF9108951F920F920FB60F92112486
:100470008F93F8941A9B03C081E080931B037894B8
:100480008F910F900FBE0F901F9018951F920F9293
:100490000FB60F9211242F933F934F935F936F9357
:1004A0007F938F939F93AF93BF93EF93FF93F894B2
:1004B000339B09C066EC71E080EB93E00E94221050
:1004C00081E080931A037894FF91EF91BF91AF91EF
:1004D0009F918F917F916F915F914F913F912F915C
:1004E0000F900FBE0F901F9018956DE188EF92E06E
:1004F0000E946A0545E050E066E070E088EE92E018
:100500000C942E07CF92DF92EF92FF920E949F00F1
:100510001092DF021092E0021092E1021092E202C9
:100520001092DB021092DC021092DD021092DE02C9
:100530001092DA021092E3021092E4021092E502A5
:100540001092E6028FEF8093E7021092150310924B
:100550001403789410921B0310921A03109219033B
:100560001092160340E052EC61E070E080EB93E003
:100570000E942D0C80EB93E00E945E0D8823D1F346
:1005800080EB93E00E940E0D68EE73E080E090E057
:100590000E94D6096DE088EF92E00E9497058A32AA
:1005A00051F481E0809313036FEC71E080EB93E0F2
:1005B0000E94221008C066EE71E080EB93E00E947A
:1005C00022101092130364E072E080EB93E00E942B
:1005D00022106CE172E080EB93E00E9422100E94F6
:1005E000FB006093E3027093E4028093E502909332
:1005F000E60267E572E080EB93E00E94380F6091BD
:10060000E3027091E4028091E5029091E60228EE07
:10061000C22E23E0D22EE12CF12CA70196010E94DC
:100620009C10BA01A9012AE030E080EB93E00E941F
:10063000D90E6AE172E080EB93E00E94380F60917E
:10064000E3027091E4028091E5029091E602A70135
:1006500096010E949C10AB01BC012AE030E080EBC7
:1006600093E00E94D90E68E672E080EB93E00E946E
:1006700022106AE672E080EB93E00E94380F6091EE
:100680000F0170E04AE050E080EB93E00E94190F08
:1006900064E772E080EB93E00E94380F60911303EF
:1006A00070E04AE050E080EB93E00E94190F69E3AC
:1006B00072E080EB93E00E94221064EF71E080E032
:1006C00090E00E94D609FF90EF90DF90CF900C94BD
:1006D0005701CF92DF92EF92FF920F931F93CF9328
:1006E000DF9380911A03882309F4F2C080911303E9
:1006F000882309F4EDC064EC72E080EB93E00E9483
:10070000380FF89410921A0365E073E088EF92E0D6
:100710000E943606C3B10E94B50090E0C4702C2F31
:1007200030E082239323892B09F407C1109216032A
:1007300063E872E080EB93E00E94380F809116032B
:10074000882309F4FEC06CE772E080EB93E00E941E
:10075000221081E080931903809114039091150376
:10076000019690931503809314038D329140A0F06D
:1007700010921503109214036DE872E080EB93E081
:100780000E94380F60911403709115034AE050E005
:1007900080EB93E00E949E0E2C9A85E090E00E94F0
:1007A0002F0A82E00E94CD0110920B0310920C03DD
:1007B00010920D0310920E0388EE92E00E946407DF
:1007C000AB01BC0140930F035093100360931103DE
:1007D0007093120321E030E088EE92E00E948507DA
:1007E00060930B0370930C0380930D0390930E039F
:1007F0006CE972E080EB93E00E94380F40910B03AC
:1008000050910C0360910D0370910E0322E030E0D3
:1008100080EB93E00E941F1067EA72E080EB93E0A8
:100820000E942210C0900B03D0900C03E0900D03A7
:10083000F0900E0320E030E04AEF53E4C701B60128
:100840000E94090887FD80C0109218038091180348
:100850008823E1F3109218035A98C5E0D3E009EF1A
:1008600012E069917991882777FD8095982F0E94F1
:10087000770820E030E040E85BE30E942B09F801B4
:1008800061937193819391938F01F3E0CB30DF07F4
:1008900041F7C9EFD2E0499159916991799124E0EA
:1008A00030E080EB93E00E941F106AEA72E080EB78
:1008B00093E00E94380F23E0C530D20761F780EB48
:1008C00093E00E94EF0D7894809116030E94FA0144
:1008D00080911B03882371F06CEA72E080EB93E057
:1008E0000E94380F10921B030E94B50080931903D9
:1008F0001092160380911903882391F164EB72E042
:1009000080EB93E00E94380F6091160370E04AE09C
:1009100050E080EB93E00E94190F80EB93E00E947F
:100920000E0D80911603DF91CF911F910F91FF90D3
:10093000EF90DF90CF900C94FA0181E08093160342
:10094000F7CE60E872E001CF20E030E048EC52E4FE
:10095000C701B6010E94270987FD76CF5A9A74CF46
:10096000DF91CF911F910F91FF90EF90DF90CF908B
:10097000089510921C0356984E9BFECF57980895E9
:10098000882311F0579802C0579A5F9856984E9B4B
:10099000FECF8AE08A95F1F700C0569A5E988AE009
:1009A0008A95F1F700C00895579856984E9BFECF50
:1009B00089B19AE09A95F1F700C0569A5E989AE04C
:1009C0009A95F1F700C0881F8827881F08958091A5
:1009D0001C03882361F057988AE08A95F1F700C0DC
:1009E00056984E9BFECF8AE08A95F1F700C0579A41
:1009F0005F988AE08A95F1F700C0569A5E988AE07F
:100A00008A95F1F700C081E080931C030895579AFE
:100A10005F988AE08A95F1F700C056984E9BFECF0A
:100A200085E08A95F1F70000579810921C0308950D
:100A3000CF93DF93D82FC8E08D2F881F8827881F7A
:100A40000E94C004DD0FC150B9F7579856984E9BCD
:100A5000FECF4F990CC08AE08A95F1F700C0569AF4
:100A60005E98579A8AE08A95F1F700C0C1E08C2F12
:100A7000DF91CF9108951F93CF93DF93182FD8E084
:100A8000C0E00E94D404CC0FC82BD150D1F7579AA4
:100A9000112359F0579856984E9BFECF8AE08A95BD
:100AA000F1F700C0569A5E980CC0579A5F98569816
:100AB0004E9BFECF8AE08A95F1F700C0569A5E9869
:100AC00057988AE08A95F1F700C08C2FDF91CF917B
:100AD0001F910895FC0160830C94B904EF92FF927A
:100AE0001F93CF93DF931F92CDB7DEB77C01142FF6
:100AF00069830E94E704F7018081880F0E9418052E
:100B00006981882361F0862F0E941805882339F0B7
:100B1000812F0E9418050E94070581E001C08FEF18
:100B20000F90DF91CF911F91FF90EF9008950F9359
:100B30001F93CF93DF931F92CDB7DEB78C016983EC
:100B40000E94E704F8018081880F0E9418056981DE
:100B5000811102C08FEF16C0862F0E9418058823CE
:100B6000C9F30E94E704F8018081880F81600E9428
:100B70001805882379F381E00E943B0589830E9450
:100B8000070589810F90DF91CF911F910F910895F3
:100B9000CF93DF93EC016AE20E949705482F4160F2
:100BA0006AE2CE01DF91CF910C946E05CF93DF9373
:100BB000EC016AE20E949705482F4E7F6AE2CE015F
:100BC000DF91CF910C946E05AF92BF92CF92DF92DE
:100BD000EF92FF920F931F93CF93DF9300D01F925A
:100BE000CDB7DEB78C017A012A833B8369830E94EB
:100BF000E704F8018081880F0E9418056981862F1B
:100C00000E9418050E94E704F8018081880F816026
:100C10000E9418052A81A22E3B81B32E00E010E02D
:100C20006701F1E0CF1AD1080E151F0584F40C15E9
:100C30001D0511F481E001C080E00E943B05F50133
:100C400080830F5F1F4FFFEFAF1ABF0AEDCF0F90EA
:100C50000F900F90DF91CF911F910F91FF90EF9028
:100C6000DF90CF90BF90AF900C9407050F931F9328
:100C7000CF93DF9300D000D000D0CDB7DEB78B018B
:100C80009E012F5F3F4F46E050E061E00E94E40587
:100C9000FE01329620E030E0B9016E7F600F711FD7
:100CA000CF010197DC018C9190E0982F882740813B
:100CB000842B54E0959587955A95E1F7DB018D9348
:100CC0009C932E5F3F4F32962630310529F72696AA
:100CD0000FB6F894DEBF0FBECDBFDF91CF911F914D
:100CE0000F910895AF92BF92CF92EF92FF920F9320
:100CF0001F93CF93DF931F92CDB7DEB75C01F42E25
:100D0000122F69830E94D6056981623021F0643018
:100D100011F0683039F4462F50E0559547955595B8
:100D2000479501C040E06EE0C5010E946E056AE291
:100D3000C5010E949705482F47706AE2C5010E94CD
:100D40006E0587E08F1570F06AE2C5010E94970575
:100D500098E0F99EB0011124482F462B6AE2C501A4
:100D60000E946E05143070F46AE2C5010E94970576
:100D7000E0E41E9F90011124482F422B6AE2C50136
:100D80000E946E056BE2C5010E949705482F4F61D6
:100D90006BE2C5010E946E05402F69E2C5010E9409
:100DA0006E054AE06CE2C5010E946E0545E86DE201
:100DB000C5010E946E0544E86EE2C5010E946E0501
:100DC0006EE2C5010E949705482F6EE2C5010E94A0
:100DD0006E0548EF65E1C5010E946E054E2D67E185
:100DE000C5010E946E054C2D68E1C5010E946E058B
:100DF000C5010F90DF91CF911F910F91FF90EF9060
:100E0000CF90BF90AF900C94C8051F920F920FB671
:100E10000F9211242F933F934F935F936F937F9380
:100E20008F939F93AF93BF93EF93FF93E0911D0335
:100E3000F0911E03309709F00995FF91EF91BF9152
:100E4000AF919F918F917F916F915F914F913F9162
:100E50002F910F900FBE0F901F901895EF92FF9259
:100E60000F931F93CF93DF9300D0CDB7DEB77C01F4
:100E7000062F142F61E0802F5A8379830E94740A11
:100E800060E0812F0E94740AF701008379817183E9
:100E900012835A81538345E85CEF6CED71E444831F
:100EA0005583668377834CE953E56CE872E44087A9
:100EB0005187628773870F900F90DF91CF911F91B9
:100EC0000F91FF90EF900895CF93DF93EC0160E0D6
:100ED00088810E94B30A82E090E00E942F0A61E0BC
:100EE00088810E94B30A8AE090E00E942F0A60E0A5
:100EF00088810E94B30A20E432E44FE050E061E0D0
:100F00008A81DF91CF910C94070BCF93DF93EC0193
:100F1000CB01BA01232B39F00E9477082C813D8147
:100F20004E815F8106C00E947708288539854A85F1
:100F30005B850E940D0820E030E040E05FE30E9406
:100F40002B09DF91CF9108955058BB27AA270ED0C7
:100F500044C135D130F03AD120F031F49F3F11F443
:100F60001EF42AC10EF4E095E7FB20C1E92F46D11B
:100F700080F3BA17620773078407950718F071F4B6
:100F80009EF55EC10EF4E0950B2EBA2FA02D0B013D
:100F9000B90190010C01CA01A0011124FF27591BBE
:100FA00099F0593F50F4503E68F11A16F040A22FC4
:100FB000232F342F4427585FF3CF46953795279535
:100FC000A795F0405395C9F77EF41F16BA0B620B34
:100FD000730B840BBAF09150A1F0FF0FBB1F661F7B
:100FE000771F881FC2F70EC0BA0F621F731F841FBE
:100FF00048F4879577956795B795F7959E3F08F0E4
:10100000B3CF9395880F08F09927EE0F97958795A2
:101010000895A8D008F481E008950CD0DEC0D6D0A1
:1010200040F0CDD030F021F45F3F19F0BFC0511136
:1010300008C1C2C0E3D098F39923C9F35523B1F393
:10104000951B550BBB27AA2762177307840738F037
:101050009F5F5F4F220F331F441FAA1FA9F333D096
:101060000E2E3AF0E0E830D091505040E695001C4A
:10107000CAF729D0FE2F27D0660F771F881FBB1F06
:10108000261737074807AB07B0E809F0BB0B802DE0
:10109000BF01FF2793585F4F2AF09E3F510568F02C
:1010A00085C0CFC05F3FECF3983EDCF38695779523
:1010B0006795B795F7959F5FC9F7880F911D96952E
:1010C000879597F90895E1E0660F771F881FBB1F8A
:1010D000621773078407BA0720F0621B730B840B37
:1010E000BA0BEE1F88F7E0950895E89409C097FBC6
:1010F0003EF490958095709561957F4F8F4F9F4FEF
:101100009923A9F0F92F96E9BB279395F695879532
:1011100077956795B795F111F8CFFAF4BB0F11F4F5
:1011200060FF1BC06F5F7F4F8F4F9F4F16C088239C
:1011300011F096E911C0772321F09EE8872F762FD2
:1011400005C0662371F096E8862F70E060E02AF013
:101150009A95660F771F881FDAF7880F96958795FF
:1011600097F90895990F0008550FAA0BE0E8FEEFD4
:1011700016161706E807F907C0F012161306E4075B
:10118000F50798F0621B730B840B950B39F40A2654
:1011900061F0232B242B252B21F408950A2609F432
:1011A000A140A6958FEF811D811D089597F99F6736
:1011B00080E870E060E008959FEF80EC08950024DF
:1011C0000A941616170618060906089500240A94AC
:1011D00012161306140605060895092E0394000C32
:1011E00011F4882352F0BB0F40F4BF2B11F460FFC1
:1011F00004C06F5F7F4F8F4F9F4F089557FD9058EA
:10120000440F551F59F05F3F71F04795880F97FBCA
:10121000991F61F09F3F79F0879508951216130684
:101220001406551FF2CF4695F1DF08C016161706B3
:101230001806991FF1CF86957105610508940895E8
:10124000E894BB2766277727CB0197F908958ADFB3
:1012500008F48FEF08950BD0C0CFB1DF28F0B6DFD0
:1012600018F0952309F0A2CFA7CF1124EACFC6DF4B
:10127000A0F3959FD1F3950F50E0551F629FF001A9
:10128000729FBB27F00DB11D639FAA27F00DB11D02
:10129000AA1F649F6627B00DA11D661F829F22278B
:1012A000B00DA11D621F739FB00DA11D621F839F12
:1012B000A00D611D221F749F3327A00D611D231FE8
:1012C000849F600D211D822F762F6A2F11249F5736
:1012D00050408AF0E1F088234AF0EE0FFF1FBB1F59
:1012E000661F771F881F91505040A9F79E3F5105F8
:1012F00070F05CCFA6CF5F3FECF3983EDCF38695B1
:1013000077956795B795F795E7959F5FC1F7FE2BA2
:10131000880F911D9695879597F908951F920F92C2
:101320000FB60F9211242F933F938F939F93AF93F8
:10133000BF938091230390912403A0912503B09142
:101340002603309127030196A11DB11D232F2D5F88
:101350002D3720F02D570196A11DB11D2093270395
:101360008093230390932403A0932503B093260333
:1013700080911F0390912003A0912103B09122033B
:101380000196A11DB11D80931F0390932003A0938C
:101390002103B0932203BF91AF919F918F913F9111
:1013A0002F910F900FBE0F901F9018959B01AC01CD
:1013B0007FB7F89480911F0390912003A09121039F
:1013C000B091220366B5A89B05C06F3F19F0019646
:1013D000A11DB11D7FBFBA2FA92F982F8827860F77
:1013E000911DA11DB11D62E0880F991FAA1FBB1F8F
:1013F0006A95D1F7BC012DC0FFB7F89480911F0307
:1014000090912003A0912103B0912203E6B5A89BFF
:1014100005C0EF3F19F00196A11DB11DFFBFBA2F06
:10142000A92F982F88278E0F911DA11DB11DE2E0D5
:10143000880F991FAA1FBB1FEA95D1F7861B970B30
:10144000885E9340C8F2215030404040504068517F
:101450007C4F211531054105510571F6089501971D
:1014600039F0880F991F880F991F02970197F1F79C
:101470000895789484B5826084BD84B5816084BD0C
:1014800085B5826085BD85B5816085BDEEE6F0E0FD
:10149000808181608083E1E8F0E010828081826059
:1014A0008083808181608083E0E8F0E080818160DA
:1014B0008083E1EBF0E0808184608083E0EBF0E00A
:1014C000808181608083EAE7F0E0808184608083AE
:1014D0008081826080838081816080838081806858
:1014E00080831092C1000895CF93DF93482F50E07E
:1014F000CA0186569F4FFC0134914A575F4FFA014B
:101500008491882369F190E0880F991FFC01E859C4
:10151000FF4FA591B491FC01EE58FF4FC591D491B6
:10152000662351F42FB7F8948C91932F90958923CB
:101530008C93888189230BC0623061F42FB7F894B3
:101540008C91932F909589238C938881832B88830A
:101550002FBF06C09FB7F8948C91832B8C939FBFAD
:10156000DF91CF910895482F50E0CA0182559F4FD7
:10157000FC012491CA0186569F4FFC0194914A5761
:101580005F4FFA013491332309F440C0222351F113
:10159000233071F0243028F42130A1F0223011F5ED
:1015A00014C02630B1F02730C1F02430D9F404C083
:1015B000809180008F7703C0809180008F7D809321
:1015C000800010C084B58F7702C084B58F7D84BD44
:1015D00009C08091B0008F7703C08091B0008F7DEB
:1015E0008093B000E32FF0E0EE0FFF1FEE58FF4FA7
:1015F000A591B4912FB7F894662321F48C9190951E
:10160000892302C08C91892B8C932FBF08958F92D0
:101610009F92AF92BF92CF92DF92EF92FF920F9381
:101620001F93CF93DF93A82FB0E0CD0186569F4F35
:10163000FC018490AA57BF4FFD018491662311F4E9
:10164000992401C0982C6FEFA62E6FEFB62E6FEF86
:10165000C62E6FE0D62EA222B322C422D522682F36
:1016600070E0660F771F64587F4FEE24FF248701D8
:10167000FB01A591B4910BC0EA14FB040C051D05F8
:1016800009F44EC00894E11CF11C011D111D8C9140
:101690008821891589F30CC0EA14FB040C051D058B
:1016A00009F43EC00894E11CF11C011D111D03C08A
:1016B000FB01A591B4918C918821891569F720E0EF
:1016C00030E040E050E0FB01C591D4910FC0DA0159
:1016D000C9018E0D9F1DA01FB11F8A159B05AC056A
:1016E000BD05F1F02F5F3F4F4F4F5F4F888188213D
:1016F000891569F3CA01B90125E130E040E050E005
:101700000E946A109B01AC01205F3F4F4F4F5F4F1B
:1017100084E056954795379527958A95D1F704C06B
:1017200020E030E040E050E0B901CA01DF91CF9104
:101730001F910F91FF90EF90DF90CF90BF90AF90EF
:101740009F908F90089508951F920F920FB60F9259
:1017500011242F933F934F938F939F93EF93FF9376
:101760008091C00082FD1DC04091C6002091680399
:10177000309169032F5F3F4F2F73307080916A0360
:1017800090916B032817390771F0E0916803F0918D
:101790006903E85DFC4F408330936903209368033D
:1017A00002C08091C600FF91EF919F918F914F9160
:1017B0003F912F910F900FBE0F901F901895E091C1
:1017C000BC03F091BD03E05CFF4F819191912081BA
:1017D0003181821B930B8F739070892B11F00E94C3
:1017E000A30B08951F920F920FB60F9211242F93FF
:1017F0003F938F939F93EF93FF932091AC0330918E
:10180000AD038091AE039091AF032817390731F4EF
:101810008091C1008F7D8093C10014C0E091AE0320
:10182000F091AF03E459FC4F20818091AE03909179
:10183000AF0301968F7390709093AF038093AE03C4
:101840002093C600FF91EF919F918F913F912F912F
:101850000F900FBE0F901F901895AF92BF92DF921E
:10186000EF92FF920F931F93CF93DF93EC017A01D6
:101870008B01DD24403081EE580780E0680780E06E
:10188000780711F0DD24D39491E0A92EB12CEC89D6
:10189000FD89DD2069F0C50108A002C0880F991FED
:1018A0000A94E2F7808360E079E08DE390E005C080
:1018B000108260E874E88EE190E0A80197010E9430
:1018C0007A1021503040404050405695479537950A
:1018D000279580E12030380720F0DD2011F0DD244D
:1018E000D6CFE889F9893083EA89FB89208319A258
:1018F000EE89FF89408121E030E0C9010C8C02C0F3
:10190000880F991F0A94E2F7482B4083EE89FF89DC
:101910004081C9010D8C02C0880F991F0A94E2F71B
:10192000482B4083EE89FF894081C9010E8C02C09B
:10193000880F991F0A94E2F7482B4083EE89FF89AC
:1019400080810F8C02C0220F331F0A94E2F720958A
:1019500028232083DF91CF911F910F91FF90EF906B
:10196000DF90BF90AF900895DC011C96ED91FC9143
:101970001D97E05CFF4F2191319180819181281B5F
:10198000390B2F733070C9010895DC011C96ED915D
:10199000FC911D97E05CFF4F20813181E054F040C5
:1019A000DF01AE5BBF4F8D919C91119728173907CE
:1019B00019F42FEF3FEF07C08D919C91E80FF91FAD
:1019C0008081282F30E0C9010895DC011C96ED913B
:1019D000FC911D97E05CFF4F20813181E054F04085
:1019E000DF01AE5BBF4F8D919C911197281739078E
:1019F00019F42FEF3FEF10C08D919C911197E80FD4
:101A0000F91F20818D919C91119701968F73907091
:101A100011969C938E9330E0C9010895DC01919654
:101A20008C919197882339F05496ED91FC915597BC
:101A3000808186FFF9CF91961C920895CF93DF9312
:101A4000EC01EE85FF85E05CFF4F20813181E054A1
:101A5000F0402F5F3F4F2F733070DF01AE5BBF4F01
:101A60008D919C91119728173907D1F3E05CFF4FB6
:101A700080819181E054F040E80FF91F6083EE858A
:101A8000FF85E05CFF4F31832083EE89FF89208151
:101A900081E090E00F8C02C0880F991F0A94E2F752
:101AA000282B208381E089A3EC89FD8980818064D3
:101AB000808381E090E0DF91CF91089581E00895E7
:101AC0001092B3031092B20388EE93E0A0E0B0E06E
:101AD0008093B4039093B503A093B603B093B70378
:101AE0008DEC92E09093B1038093B00388E293E091
:101AF0009093BD038093BC038CE693E09093BF0367
:101B00008093BE0385EC90E09093C1038093C00363
:101B100084EC90E09093C3038093C20380EC90E048
:101B20009093C5038093C40381EC90E09093C70326
:101B30008093C60382EC90E09093C9038093C8031E
:101B400086EC90E09093CB038093CA0384E080936B
:101B5000CC0383E08093CD0387E08093CE0385E0C0
:101B60008093CF0381E08093D0030895CF93DF93D8
:101B70000E94390A0E948202CFEDDBE00E946903D5
:101B80002097E1F30E94DF0BF9CFCF92DF92EF9223
:101B9000FF920F931F93CF93DF937C016B018A0118
:101BA000C0E0D0E00FC0D6016D916D01D701ED917D
:101BB000FC910190F081E02DC7010995C80FD91F54
:101BC000015010400115110571F7CE01DF91CF9141
:101BD0001F910F91FF90EF90DF90CF900895EF92BB
:101BE000FF920F931F938C01DC01ED91FC9101900A
:101BF000F081E02D6DE009957C01D801ED91FC911B
:101C00000190F081E02DC8016AE009959C012E0D3C
:101C10003F1DC9011F910F91FF90EF900895CF9341
:101C2000DF93EC016115710519F420E030E00FC07D
:101C3000DB010D900020E9F71197A61BB70BE88197
:101C4000F9810280F381E02DAD0109959C01C90164
:101C5000DF91CF9108954F925F927F928F929F92E2
:101C6000AF92BF92CF92DF92EF92FF920F931F93AA
:101C7000DF93CF93CDB7DEB7A1970FB6F894DEBF51
:101C80000FBECDBF2C01742ECB01223008F42AE008
:101C900019A231E2C32ED12CCC0EDD1E822E992446
:101CA000AA24BB24672D752FA50194010E947A10E8
:101CB00079018A01C801B701A50194010E946A1047
:101CC000472D461B0894C108D1084A3014F4405DE2
:101CD00001C0495CF6014083E114F10401051105DE
:101CE00021F07E2C5F2DC801DDCFC201B6010E941C
:101CF0000F0EA1960FB6F894DEBF0FBECDBFCF91E9
:101D0000DF911F910F91FF90EF90DF90CF90BF90E8
:101D1000AF909F908F907F905F904F900895DC01DF
:101D20002115310541F4ED91FC910190F081E02DF8
:101D3000642F099508950E942B0E0895CF92DF928B
:101D4000EF92FF920F931F936C017B019A0100E0C9
:101D500010E0B801A7010E948F0E8C01C6010E94FD
:101D6000EF0D080F191FC8011F910F91FF90EF9001
:101D7000DF90CF900895CF92DF92EF92FF920F9372
:101D80001F936C01E62E9A01FF2400E010E0B801D9
:101D9000A7010E948F0E8C01C6010E94EF0D080F53
:101DA000191FC8011F910F91FF90EF90DF90CF9006
:101DB0000895CF92DF92EF92FF920F931F93CF93EC
:101DC000DF93EC016A017B012115310541F4E881C3
:101DD000F9810190F081E02D642F09951FC02A3010
:101DE0003105D1F477FF17C0E881F9810190F081C6
:101DF000E02D6DE209958C0144275527BA014C1955
:101E00005D096E097F09CE012AE00E942B0E980120
:101E1000280F391F04C02AE00E942B0E9C01C90123
:101E2000DF91CF911F910F91FF90EF90DF90CF90B6
:101E30000895CF92DF92EF92FF920F931F936C0160
:101E40007B019A010027F7FC0095102FB801A7012C
:101E50000E94D90E8C01C6010E94EF0D080F191FB8
:101E6000C8011F910F91FF90EF90DF90CF900895E0
:101E70000E940F0E08957F928F929F92AF92BF9211
:101E8000CF92DF92EF92FF920F931F93CF93DF9346
:101E90004C017A018B01722ECB01BA01A801970186
:101EA0000E946610882321F0C40160E071E021C027
:101EB000C0E0D0E057016801E894D7F8C601B50149
:101EC0002FEF3FEF4FE75FE70E946610882351F442
:101ED000C601B5012FEF3FEF4FE75FE70E9409080A
:101EE000181614F0C1E0D0E0219739F0C40164E085
:101EF00071E00E940F0EEC0193C0C801B7012FEFF3
:101F00003FEF4FE75FE40E942709181654F0C8011D
:101F1000B7012FEF3FEF4FE75FEC0E9409088823DE
:101F200024F4C40168E071E0E4CFC801B70120E007
:101F300030E040E050E00E94090887FD03C0C0E0A7
:101F4000D0E00EC0D401ED91FC910190F081E02D24
:101F5000C4016DE20995EC0117FB109517F9109576
:101F600020E030E040E05FE3DD240BC0CA01B901AE
:101F700020E030E040E251E40E940D089B01AC01FA
:101F8000D394D71498F3C801B7010E94A5075B0149
:101F90006C010E943A107B018C01C401B801A701B9
:101FA0002AE030E00E948F0EC80FD91F772039F049
:101FB000C4016CE071E00E940F0EC80FD91FC80168
:101FC000B7010E9475089B01AC01C601B5010E94D2
:101FD000A40724C020E030E040E251E40E942B0935
:101FE0007B018C010E9435105B016C01CC24B7FC95
:101FF000C094DC2CC401B601A5012AE030E00E94A7
:10200000D90EC80FD91FC601B5010E9477089B01E0
:10201000AC01C801B7010E94A4077A947720D1F6D9
:10202000CE01DF91CF911F910F91FF90EF90DF9044
:10203000CF90BF90AF909F908F907F9008950E9417
:102040003B0F0895EF92FF920F931F937C010E9424
:102050000F0E8C01C7010E94EF0D080F191FC80158
:102060001F910F91FF90EF90089504D06894B111E3
:10207000E8C80895CBD888F09F5790F0B92F9927DA
:10208000B751A0F0D1F0660F771F881F991F1AF083
:10209000BA95C9F712C0B13081F0D2D8B1E0089535
:1020A000CFC8672F782F8827B85F39F0B93FCCF3B6
:1020B000869577956795B395D9F73EF49095809579
:1020C000709561957F4F8F4F9F4F08954BD8880B28
:1020D000990B0895DB018F939F930E94BB10BF91D2
:1020E000AF91A29F800D911DA39F900DB29F900D67
:1020F00011240895A1E21A2EAA1BBB1BFD010DC0DD
:10210000AA1FBB1FEE1FFF1FA217B307E407F507A7
:1021100020F0A21BB30BE40BF50B661F771F881F83
:10212000991F1A9469F760957095809590959B0119
:10213000AC01BD01CF010895052E97FB1EF400945C
:102140000E94B31057FD07D00E947A1007FC03D0FD
:102150004EF40C94B31050954095309521953F4F17
:102160004F4F5F4F089590958095709561957F4F83
:102170008F4F9F4F08950E94CC10A59F900DB49F44
:10218000900DA49F800D911D11240895EE0FFF1F47
:102190000590F491E02D0994A29FB001B39FC00176
:1021A000A39F700D811D1124911DB29F700D811D83
:0A21B0001124911D0895F894FFCF4B
:1021BA006E616E00696E66006F7666002E0000071B
:1021CA00494E5420313A203078005359534D4F44E8
:1021DA003A20307800436C656172696E6720696ED7
:1021EA0074657272757074732E2E2E005365747432
:1021FA00696E6720757020616363656C65726F6DC7
:10220A0065746572732E2E2E005363616C653A20D5
:10221A000044617461206F64723A2000536C6565F2
:10222A0070206F64723A200041736C656570206398
:10223A006F756E743A20004D6F74696F6E20746802
:10224A00726573686F6C643A20004465626F756EDC
:10225A00636520636F756E743A2000436C65617222
:10226A00206661696C656400436C656172207375F0
:10227A00636365656400476F7420696E7432004D4C
:10228A004D413834353251206973206F6E2D6C6997
:10229A006E652E2E2E00436F756C64206E6F74204F
:1022AA00636F6E6E65637420746F204D4D413834D0
:1022BA003532510057454C434F4D4520544F20422B
:1022CA004C494E44534146452E2E2E002B2B2B2B88
:1022DA002B2B2B2B2B2B2B2B2B2B2B2B2B2B2B2B44
:1022EA002B2B2B2B2B2B2B2B2B2B2B2B2B2B2B2B34
:1022FA002B2B2B2B2B2B2B2B2B2B2B2B2B2B2B2B24
:10230A002B2B2B2B2B2B00506F776572204C65766D
:10231A00656C2041743A20005600414343204F44E3
:10232A00523A200041434320313A20005965730054
:10233A004E6F0044726976696E673A200042617492
:10234A007420636F756E7465723A20004469737401
:10235A00616E63653A2000636D000900536C707703
:10236A00616B6500536C65657020416374697665BD
:10237A00203D2000506F6F7000000000001E0DC548
:0A238A000DB40CE50CC50C0E0D009F
:00000001FF
