:100000000C9463000C948B000C948B000C94D50121
:100010000C9401020C948B000C948B000C94D8056A
:100020000C948B000C948B000C948B000C948B0024
:100030000C948B000C948B000C948B000C948B0014
:100040000C94F2060C948B000C9422080C9470080B
:100050000C948B000C948B000C948B000C948B00F4
:100060000C948B000C948B000000000024002700EF
:100070002A0000000000250028002B0000000000DE
:1000800023002600290004040404040404040202DA
:100090000202020203030303030301020408102007
:1000A0004080010204081020010204081020000012
:1000B0000007000201000003040600000000000029
:1000C00000002D02DE0911241FBECFEFD8E0DEBFF5
:1000D000CDBF12E0A0E0B1E0EEE6FCE102C0059089
:1000E0000D92A436B107D9F723E0A4E6B2E001C02F
:1000F0001D92A333B207E1F710E0C6ECD0E004C0D4
:100100002297FE010E94220EC23CD107C9F70E942D
:10011000340A0C94350E0C9400006CE084E692E0F6
:100120000E94810466E184E692E00E94810461E716
:1001300072E084E692E00C94090582E084B984E0E0
:1001400087B984E58AB98BEF84B984EF87B98FE1E9
:100150008AB90895882341F0813061F490916C0050
:10016000986090936C0012C090916B009460909393
:100170006B000CC090916B00946090936B00909119
:100180006C00986090936C00823068F490916800E5
:1001900021E030E0082E01C0220F0A94EAF7922BEA
:1001A0009093680008958091680083608093680050
:1001B0000895CF92EF920F9382E00E94AA0060E12F
:1001C00071E081E193E00E94830C6DE271E081E1D6
:1001D00093E00E94990B4AE050E068E070E081E112
:1001E00093E00E947A0B65E371E081E193E00E9465
:1001F000990B4AE050E067E070E081E193E00E94F3
:100200007A0B60E471E081E193E00E94990B4AE08F
:1002100050E063E070E081E193E00E947A0B6CE4CF
:1002200071E081E193E00E94990B4AE050E069E2BD
:1002300070E081E193E00E947A0B6BE571E081E16F
:1002400093E00E94990B4AE050E060E170E081E1A8
:1002500093E00E947A0B6EE671E081E193E00E94E8
:10026000990B4AE050E061E070E081E193E00E9488
:100270007A0B69EE71E081E193E00E94830CCC245B
:10028000C39480E1E82E09E223E047E068E084E6D9
:1002900092E00E9445050F91EF90CF90089588233A
:1002A00041F0813061F490916C00977F90936C00E5
:1002B00012C090916B009B7F90936B000CC090914B
:1002C0006B009B7F90936B0090916C00977F909355
:1002D0006C00823070F49091680021E030E0082ECC
:1002E00001C0220F0A94EAF7209529232093680081
:1002F0000895109268000895CF93C82F10927C0241
:1003000010927B0293B7917F946093BF93B79160F3
:1003100093BFF89485B7806685BF8F7D85BF80E0E9
:100320000E94AA0081E0CC2319F00E94AA0002C01A
:100330000E944F010E948D007894889583B78E7F2C
:1003400083BF81E00E94AA0010927A02CF910895A3
:10035000CF93F894C0917C008EE480937C0062E09F
:1003600070E080E090E00E943A0780917A0080641B
:1003700080937A0080917A0086FDFCCF20917800EE
:100380008091790030E0382B442737FD4095542F79
:10039000C0937C00789464EB7BE281E190E00E9462
:1003A000F60DCA01B901CF9108951F920F920FB6B1
:1003B0000F9211242F933F934F935F936F937F93EB
:1003C0008F939F93AF93BF93EF93FF93F89482E043
:1003D0000E94CE07892B19F081E080937C027894EB
:1003E000FF91EF91BF91AF919F918F917F916F910D
:1003F0005F914F913F912F910F900FBE0F901F90E3
:1004000018951F920F920FB60F9211242F933F93BE
:100410004F935F936F937F938F939F93AF93BF930C
:10042000EF93FF93F89483E00E94CE07892B19F095
:1004300081E080937B027894FF91EF91BF91AF911F
:100440009F918F917F916F915F914F913F912F91EC
:100450000F900FBE0F901F9018956DE184E692E00B
:100460000C9454048F929F92AF92BF92CF92DF92DE
:10047000EF92FF920E949D00789410927C0210925D
:100480007B0210927A021092770240E052EC61E017
:1004900070E081E193E00E94AB0881E193E00E946B
:1004A000DC098823D1F381E193E00E948C0968EE96
:1004B00073E080E090E00E943A076DE084E692E00D
:1004C0000E9481048A3251F481E0809378026FE7C0
:1004D00071E081E193E00E94830C08C066E971E05D
:1004E00081E193E00E94830C1092780264EB71E04A
:1004F00081E193E00E94830C6CEC71E081E193E078
:100500000E94830C0E94A8016B017C0167E072E0ED
:1005100081E193E00E94990BC701B60128EE33E018
:1005200040E050E00E94F60D49015A016B017C0148
:100530002AE030E0B501A40181E193E00E943A0B8A
:100540006AEC71E081E193E00E94990B2AE030E0CF
:10055000B701A60181E193E00E943A0B68E172E0E5
:1005600081E193E00E94830C6AE172E081E193E013
:100570000E94990B60910F0170E04AE050E081E128
:1005800093E00E947A0B64E272E081E193E00E94C2
:10059000990B6091780270E04AE050E081E193E0CD
:1005A0000E947A0B69EE71E081E193E00E94830C76
:1005B00064EF71E080E090E00E943A07FF90EF90D6
:1005C000DF90CF90BF90AF909F908F900C94D90008
:1005D0000F931F93CF93DF9380917B02882309F4BD
:1005E00048C080917802882309F443C010927B02AE
:1005F00061E772E084E692E00E94090581E0809361
:10060000770280937A02C1E7D2E005E612E06991B1
:100610007991882777FD8095982F0E94030620E026
:1006200030E040E85BE30E943E06F801619371937D
:10063000819391938F01F2E0C737DF0741F7C5E659
:10064000D2E0499159916991799124E030E081E1BA
:1006500093E00E94800C6CE272E081E193E00E94E2
:10066000990B82E0C137D80761F781E193E00E94DE
:100670006D0A80917C02882309F44AC010927C02A2
:100680006CE084E692E00E9481048E7F8093790280
:1006900066E184E692E00E9481046EE272E081E10C
:1006A00093E00E94990B6091790240E150E081E172
:1006B00093E00E941C0B80917902803811F08438FD
:1006C000E9F46BE084E692E00E948104C82F68E3BD
:1006D00072E081E193E00E94990B4AE050E06C2FB8
:1006E00081E193E00E941C0BC23021F481E08093F1
:1006F0007A0204C0C13011F410927A0263E472E00D
:1007000081E193E00E94830C0E948D001092770299
:1007100080917A02882391F081E193E00E948C0914
:100720006AE070E080E090E00E943A0780917702F2
:10073000DF91CF911F910F910C947C01DF91CF91AC
:100740001F910F91089510927D0256984E9BFECFF7
:1007500057980895882311F0579802C0579A5F98C8
:1007600056984E9BFECF8AE08A95F1F700C0569AC4
:100770005E988AE08A95F1F700C0089557985698D8
:100780004E9BFECF89B19AE09A95F1F700C0569A38
:100790005E989AE09A95F1F700C0881F8827881F15
:1007A000089580917D02882361F057988AE08A95A8
:1007B000F1F700C056984E9BFECF8AE08A95F1F77C
:1007C00000C0579A5F988AE08A95F1F700C0569A60
:1007D0005E988AE08A95F1F700C081E080937D02FF
:1007E0000895579A5F988AE08A95F1F700C0569865
:1007F0004E9BFECF85E08A95F1F700005798109246
:100800007D020895CF93DF93D82FC8E08D2F881FE6
:100810008827881F0E94AA03DD0FC150B9F7579897
:1008200056984E9BFECF4F990CC08AE08A95F1F7FF
:1008300000C0569A5E98579A8AE08A95F1F700C0F0
:10084000C1E08C2FDF91CF9108951F93CF93DF9359
:10085000182FD8E0C0E00E94BE03CC0FC82BD150A7
:10086000D1F7579A112359F0579856984E9BFECFBF
:100870008AE08A95F1F700C0569A5E980CC0579AA4
:100880005F9856984E9BFECF8AE08A95F1F700C09C
:10089000569A5E9857988AE08A95F1F700C08C2F97
:1008A000DF91CF911F910895FC0160830C94A30305
:1008B000EF92FF921F93CF93DF931F92CDB7DEB7D6
:1008C0007C01142F69830E94D103F7018081880F76
:1008D0000E9402046981882361F0862F0E9402042D
:1008E000882339F0812F0E9402040E94F10381E0E5
:1008F00001C08FEF0F90DF91CF911F91FF90EF908C
:1009000008950F931F93CF93DF931F92CDB7DEB758
:100910008C0169830E94D103F8018081880F0E94B5
:1009200002046981811102C08FEF16C0862F0E94D8
:1009300002048823C9F30E94D103F8018081880F43
:1009400081600E940204882379F381E00E942504DB
:1009500089830E94F10389810F90DF91CF911F91CC
:100960000F910895CF93DF93EC016AE20E94810416
:10097000482F41606AE2CE01DF91CF910C94580478
:10098000CF93DF93EC016AE20E948104482F4E7FEF
:100990006AE2CE01DF91CF910C945804CF92DF929E
:1009A000EF92FF920F931F93CF93DF931F92CDB7D8
:1009B000DEB76C017A01890169830E94D103F601D7
:1009C0008081880F0E9402046981862F0E940204A0
:1009D0000E94D103F6018081880F81600E94020489
:1009E0006801C601801B910B8E159F053CF481E0C8
:1009F0000E942504F60181936F01F3CF0F90DF91E0
:100A0000CF911F910F91FF90EF90DF90CF900C94BA
:100A1000F1030F931F93CF93DF9300D000D000D04A
:100A2000CDB7DEB78B019E012F5F3F4F46E050E010
:100A300061E00E94CE04FE01329620E030E0B90170
:100A40006E7F600F711FCF010197DC018C9190E0E8
:100A5000982F88274081842B54E0959587955A9547
:100A6000E1F7DB018D939C932E5F3F4F329626304A
:100A7000310529F726960FB6F894DEBF0FBECDBF1D
:100A8000DF91CF911F910F910895AF92BF92CF92B6
:100A9000EF92FF920F931F93CF93DF931F92CDB7E7
:100AA000DEB75C01F42E122F69830E94C0046981B5
:100AB000623021F0643011F0683039F4462F50E094
:100AC000559547955595479501C040E06EE0C501A5
:100AD0000E9458046AE2C5010E948104482F4770B1
:100AE0006AE2C5010E94580487E08F1570F06AE23F
:100AF000C5010E94810498E0F99EB0011124482F9D
:100B0000462B6AE2C5010E945804143070F46AE270
:100B1000C5010E948104E0E41E9F90011124482F2A
:100B2000422B6AE2C5010E9458046BE2C5010E9493
:100B30008104482F4F616BE2C5010E945804402F89
:100B400069E2C5010E9458044AE06CE2C5010E94B6
:100B5000580445E86DE2C5010E94580444E86EE27D
:100B6000C5010E9458046EE2C5010E948104482F0D
:100B70006EE2C5010E94580448EF65E1C5010E947C
:100B800058044E2D67E1C5010E9458044C2D68E1C0
:100B9000C5010E945804C5010F90DF91CF911F91AC
:100BA0000F91FF90EF90CF90BF90AF900C94B20454
:100BB0001F920F920FB60F9211242F933F934F93D2
:100BC0005F936F937F938F939F93AF93BF93EF93B5
:100BD000FF93E0917E02F0917F02309709F0099532
:100BE000FF91EF91BF91AF919F918F917F916F9105
:100BF0005F914F913F912F910F900FBE0F901F90DB
:100C00001895E89409C097FB3EF4909580957095EF
:100C100061957F4F8F4F9F4F9923A9F0F92F96E948
:100C2000BB279395F695879577956795B795F111BD
:100C3000F8CFFAF4BB0F11F460FF1BC06F5F7F4F5A
:100C40008F4F9F4F16C0882311F096E911C077236C
:100C500021F09EE8872F762F05C0662371F096E875
:100C6000862F70E060E02AF09A95660F771F881F44
:100C7000DAF7880F9695879597F908950BD078C085
:100C800069D028F06ED018F0952309F05AC05FC0E3
:100C90001124A2C07ED0A0F3959FD1F3950F50E010
:100CA000551F629FF001729FBB27F00DB11D639F1E
:100CB000AA27F00DB11DAA1F649F6627B00DA11DC4
:100CC000661F829F2227B00DA11D621F739FB00D6A
:100CD000A11D621F839FA00D611D221F749F3327DA
:100CE000A00D611D231F849F600D211D822F762F73
:100CF0006A2F11249F5750408AF0E1F088234AF070
:100D0000EE0FFF1FBB1F661F771F881F91505040BB
:100D1000A9F79E3F510570F014C05EC05F3FECF331
:100D2000983EDCF3869577956795B795F795E795A7
:100D30009F5FC1F7FE2B880F911D9695879597F9B8
:100D4000089597F99F6780E870E060E008959FEF4D
:100D500080EC089500240A94161617061806090652
:100D6000089500240A941216130614060506089521
:100D7000092E0394000C11F4882352F0BB0F40F4A9
:100D8000BF2B11F460FF04C06F5F7F4F8F4F9F4FE9
:100D9000089557FD9058440F551F59F05F3F71F06B
:100DA0004795880F97FB991F61F09F3F79F08795D2
:100DB0000895121613061406551FF2CF4695F1DF5B
:100DC00008C0161617061806991FF1CF86957105EB
:100DD000610508940895E894BB2766277727CB011F
:100DE00097F908951F920F920FB60F9211242F9327
:100DF0003F938F939F93AF93BF9380918402909181
:100E00008502A0918602B0918702309188020196F6
:100E1000A11DB11D232F2D5F2D3720F02D570196D9
:100E2000A11DB11D209388028093840290938502B6
:100E3000A0938602B09387028091800290918102F4
:100E4000A0918202B09183020196A11DB11D8093F1
:100E5000800290938102A0938202B0938302BF919B
:100E6000AF919F918F913F912F910F900FBE0F9057
:100E70001F9018959B01AC017FB7F8948091800278
:100E800090918102A0918202B091830266B5A89BE5
:100E900005C06F3F19F00196A11DB11D7FBFBA2F8C
:100EA000A92F982F8827860F911DA11DB11D62E0E3
:100EB000880F991FAA1FBB1F6A95D1F7BC012DC0CF
:100EC000FFB7F8948091800290918102A0918202F4
:100ED000B0918302E6B5A89B05C0EF3F19F00196DB
:100EE000A11DB11DFFBFBA2FA92F982F88278E0FE4
:100EF000911DA11DB11DE2E0880F991FAA1FBB1F04
:100F0000EA95D1F7861B970B885E9340C8F2215073
:100F100030404040504068517C4F2115310541051B
:100F2000510571F60895789484B5826084BD84B5C6
:100F3000816084BD85B5826085BD85B5816085BDD4
:100F4000EEE6F0E0808181608083E1E8F0E01082ED
:100F5000808182608083808181608083E0E8F0E02E
:100F6000808181608083E1EBF0E080818460808318
:100F7000E0EBF0E0808181608083EAE7F0E080814F
:100F800084608083808182608083808181608083AF
:100F90008081806880831092C1000895682F70E07E
:100FA000CB0182559F4FFC012491CB0186569F4F68
:100FB000FC0144916A577F4FFB019491992319F4E6
:100FC00020E030E03CC0222351F1233071F0243086
:100FD00028F42130A1F0223011F514C02630B1F0F0
:100FE0002730C1F02430D9F404C0809180008F777D
:100FF00003C0809180008F7D8093800010C084B5F5
:101000008F7702C084B58F7D84BD09C08091B00008
:101010008F7703C08091B0008F7D8093B000892FBF
:1010200090E0880F991F84589F4FFC01A591B491BF
:101030008C9120E030E0842311F021E030E0C90100
:10104000089508951F920F920FB60F9211242F93B7
:101050003F934F938F939F93EF93FF938091C000A3
:1010600082FD1DC04091C6002091C9023091CA0284
:101070002F5F3F4F2F7330708091CB029091CC0245
:101080002817390771F0E091C902F091CA02E757B9
:10109000FD4F40833093CA022093C90202C0809161
:1010A000C600FF91EF919F918F914F913F912F91AA
:1010B0000F900FBE0F901F901895E0911D03F091B7
:1010C0001E03E05CFF4F8191919120813181821B51
:1010D000930B8F739070892B11F00E942108089553
:1010E0001F920F920FB60F9211242F933F938F935D
:1010F0009F93EF93FF9320910D0330910E03809106
:101100000F03909110032817390731F48091C10023
:101110008F7D8093C10014C0E0910F03F091100304
:10112000E353FD4F208180910F03909110030196AE
:101130008F7390709093100380930F032093C600D9
:10114000FF91EF919F918F913F912F910F900FBE43
:101150000F901F901895AF92BF92DF92EF92FF927F
:101160000F931F93CF93DF93EC017A018B01DD2462
:10117000403081EE580780E0680780E0780711F082
:10118000DD24D39491E0A92EB12CEC89FD89DD20DA
:1011900069F0C50108A002C0880F991F0A94E2F700
:1011A000808360E079E08DE390E005C0108260E824
:1011B00074E88EE190E0A80197010E94D40D2150BF
:1011C000304040405040569547953795279580E1EF
:1011D0002030380720F0DD2011F0DD24D6CFE8895B
:1011E000F9893083EA89FB89208319A2EE89FF8976
:1011F000408121E030E0C9010C8C02C0880F991FAA
:101200000A94E2F7482B4083EE89FF894081C901A7
:101210000D8C02C0880F991F0A94E2F7482B408377
:10122000EE89FF894081C9010E8C02C0880F991F89
:101230000A94E2F7482B4083EE89FF8980810F8C66
:1012400002C0220F331F0A94E2F72095282320833F
:10125000DF91CF911F910F91FF90EF90DF90BF90A2
:10126000AF900895DC011C96ED91FC911D97E05C18
:10127000FF4F2191319180819181281B390B2F7370
:101280003070C9010895DC011C96ED91FC911D9709
:10129000E05CFF4F20813181E054F040DF01AE5B24
:1012A000BF4F8D919C9111972817390719F42FEF93
:1012B0003FEF07C08D919C91E80FF91F8081282F87
:1012C00030E0C9010895DC011C96ED91FC911D9759
:1012D000E05CFF4F20813181E054F040DF01AE5BE4
:1012E000BF4F8D919C9111972817390719F42FEF53
:1012F0003FEF10C08D919C911197E80FF91F20814D
:101300008D919C91119701968F73907011969C937B
:101310008E9330E0C9010895DC0191968C919197EC
:10132000882339F05496ED91FC915597808186FF82
:10133000F9CF91961C920895CF93DF93EC01EE853F
:10134000FF85E05CFF4F20813181E054F0402F5F4A
:101350003F4F2F733070DF01AE5BBF4F8D919C917B
:10136000119728173907D1F3E05CFF4F80819181F5
:10137000E054F040E80FF91F6083EE85FF85E05CE4
:10138000FF4F31832083EE89FF89208181E090E047
:101390000F8C02C0880F991F0A94E2F7282B208334
:1013A00081E089A3EC89FD8980818064808381E06C
:1013B00090E0DF91CF91089581E008951092140399
:1013C0001092130388EE93E0A0E0B0E08093150341
:1013D00090931603A0931703B093180388E592E047
:1013E000909312038093110389E892E090931E0377
:1013F00080931D038DEC92E09093200380931F0354
:1014000085EC90E0909322038093210384EC90E09C
:10141000909324038093230380EC90E09093260321
:101420008093250381EC90E0909328038093270319
:1014300082EC90E090932A038093290386EC90E05D
:1014400090932C0380932B0384E080932D0383E0FF
:1014500080932E0387E080932F0385E080933003F1
:1014600081E0809331030895CF93DF930E94930727
:101470000E943202CDE5D8E00E94E8022097E1F315
:101480000E945D08F9CFCF92DF92EF92FF920F9307
:101490001F93CF93DF937C016B018A01C0E0D0E002
:1014A0000FC0D6016D916D01D701ED91FC910190B6
:1014B000F081E02DC7010995C80FD91F01501040D8
:1014C0000115110571F7CE01DF91CF911F910F9199
:1014D000FF90EF90DF90CF900895EF92FF920F93DF
:1014E0001F938C01DC01ED91FC910190F081E02DC6
:1014F0006DE009957C01D801ED91FC910190F0819E
:10150000E02DC8016AE009959C012E0D3F1DC9011F
:101510001F910F91FF90EF900895CF93DF93EC010F
:101520006115710519F420E030E00FC0DB010D906A
:101530000020E9F71197A61BB70BE881F98102801B
:10154000F381E02DAD0109959C01C901DF91CF9197
:1015500008954F925F927F928F929F92AF92BF9227
:10156000CF92DF92EF92FF920F931F93DF93CF936F
:10157000CDB7DEB7A1970FB6F894DEBF0FBECDBFD3
:101580002C01742ECB01223008F42AE019A231E29A
:10159000C32ED12CCC0EDD1E822E9924AA24BB246E
:1015A000672D752FA50194010E94D40D79018A0140
:1015B000C801B701A50194010E94C40D472D461B27
:1015C0000894C108D1084A3014F4405D01C0495C58
:1015D000F6014083E114F1040105110521F07E2C90
:1015E0005F2DC801DDCFC201B6010E948D0AA19610
:1015F0000FB6F894DEBF0FBECDBFCF91DF911F9124
:101600000F91FF90EF90DF90CF90BF90AF909F90A1
:101610008F907F905F904F900895DC0121153105E8
:1016200041F4ED91FC910190F081E02D642F09953A
:1016300008950E94A90A0895CF92DF92EF92FF9237
:101640000F931F936C01E62E9A01FF2400E010E037
:10165000B801A7010E940D0B8C01C6010E946D0A02
:10166000080F191FC8011F910F91FF90EF90DF9095
:10167000CF900895CF92DF92EF92FF920F931F9336
:10168000CF93DF93EC016A017B012115310541F411
:10169000E881F9810190F081E02D642F09951FC048
:1016A0002A303105D1F477FF17C0E881F981019024
:1016B000F081E02D6DE209958C0144275527BA0190
:1016C0004C195D096E097F09CE012AE00E94A90A22
:1016D0009801280F391F04C02AE00E94A90A9C0122
:1016E000C901DF91CF911F910F91FF90EF90DF9093
:1016F000CF900895CF92DF92EF92FF920F931F93B6
:101700006C017B019A010027F7FC0095102FB801AE
:10171000A7010E943A0B8C01C6010E946D0A080FB6
:10172000191FC8011F910F91FF90EF90DF90CF908C
:1017300008950E948D0A08957F928F929F92AF9292
:10174000BF92CF92DF92EF92FF920F931F93CF93AE
:10175000DF934C017A018B01722ECB01BA01A801F3
:1017600097010E94C00D882321F0C40160E071E060
:1017700021C0C0E0D0E057016801E894D7F8C60165
:10178000B5012FEF3FEF4FE75FE70E94C00D8823C1
:1017900051F4C601B5012FEF3FEF4FE75FE70E941D
:1017A000FB0C181614F0C1E0D0E0219739F0C40109
:1017B00064E071E00E948D0AEC0193C0C801B7019A
:1017C0002FEF3FEF4FE75FE40E94BC0D181654F077
:1017D000C801B7012FEF3FEF4FE75FEC0E94FB0C12
:1017E000882324F4C40168E071E0E4CFC801B701A4
:1017F00020E030E040E050E00E94FB0C87FD03C099
:10180000C0E0D0E00EC0D401ED91FC910190F081D8
:10181000E02DC4016DE20995EC0117FB109517F955
:10182000109520E030E040E05FE3DD240BC0CA010A
:10183000B90120E030E040E251E40E94FF0C9B013E
:10184000AC01D394D71498F3C801B7010E94970C48
:101850005B016C010E946C0D7B018C01C401B8011D
:10186000A7012AE030E00E940D0BC80FD91F772096
:1018700039F0C4016CE071E00E948D0AC80FD91FD5
:10188000C801B7010E9401069B01AC01C601B50168
:101890000E94960C24C020E030E040E251E40E9417
:1018A0003E067B018C010E94670D5B016C01CC241C
:1018B000B7FCC094DC2CC401B601A5012AE030E0DD
:1018C0000E943A0BC80FD91FC601B5010E9403063A
:1018D0009B01AC01C801B7010E94960C7A94772055
:1018E000D1F6CE01DF91CF911F910F91FF90EF9034
:1018F000DF90CF90BF90AF909F908F907F90089592
:101900000E949C0B0895EF92FF920F931F937C010E
:101910000E948D0A8C01C7010E946D0A080F191FD1
:10192000C8011F910F91FF90EF9008955058BB2769
:10193000AA270ED01DCA0EDA30F013DA20F031F4E7
:101940009F3F11F41EF403CA0EF4E095E7FBF9C9BA
:10195000E92F1FDA80F3BA17620773078407950728
:1019600018F071F49EF537CA0EF4E0950B2EBA2FDD
:10197000A02D0B01B90190010C01CA01A001112495
:10198000FF27591B99F0593F50F4503E68F11A1641
:10199000F040A22F232F342F4427585FF3CF4695D2
:1019A00037952795A795F0405395C9F77EF41F16F4
:1019B000BA0B620B730B840BBAF09150A1F0FF0FBE
:1019C000BB1F661F771F881FC2F70EC0BA0F621FAA
:1019D000731F841F48F4879577956795B795F7959A
:1019E0009E3F08F0B3CF9395880F08F09927EE0F2C
:1019F0009795879508959CD008F481E008950CD0C0
:101A0000B7C9AFD940F0A6D930F021F45F3F19F043
:101A100098C95111E1C99BC9BCD998F39923C9F35D
:101A20005523B1F3951B550BBB27AA2762177307E4
:101A3000840738F09F5F5F4F220F331F441FAA1F98
:101A4000A9F333D00E2E3AF0E0E830D09150504058
:101A5000E695001CCAF729D0FE2F27D0660F771F06
:101A6000881FBB1F261737074807AB07B0E809F0E8
:101A7000BB0B802DBF01FF2793585F4F2AF09E3F7D
:101A8000510568F05EC9A8C95F3FECF3983EDCF3EE
:101A9000869577956795B795F7959F5FC9F7880FF6
:101AA000911D9695879597F90895E1E0660F771F48
:101AB000881FBB1F621773078407BA0720F0621BD9
:101AC000730B840BBA0BEE1F88F7E095089504D0D2
:101AD0006894B11181C9089564D988F09F5790F036
:101AE000B92F9927B751A0F0D1F0660F771F881F43
:101AF000991F1AF0BA95C9F712C0B13081F06BD9AD
:101B0000B1E0089568C9672F782F8827B85F39F04A
:101B1000B93FCCF3869577956795B395D9F73EF4A1
:101B200090958095709561957F4F8F4F9F4F089549
:101B3000990F0008550FAA0BE0E8FEEF16161706DE
:101B4000E807F907C0F012161306E407F50798F046
:101B5000621B730B840B950B39F40A2661F0232B5F
:101B6000242B252B21F408950A2609F4A140A695DB
:101B70008FEF811D811D0895DBDF08F48FEF08953D
:101B8000D7DF880B990B0895DB018F939F930E94F9
:101B9000150EBF91AF91A29F800D911DA39F900D37
:101BA000B29F900D11240895A1E21A2EAA1BBB1B0F
:101BB000FD010DC0AA1FBB1FEE1FFF1FA217B30719
:101BC000E407F50720F0A21BB30BE40BF50B661F2F
:101BD000771F881F991F1A9469F7609570958095F3
:101BE00090959B01AC01BD01CF010895052E97FB97
:101BF0001EF400940E940D0E57FD07D00E94D40DD4
:101C000007FC03D04EF40C940D0E50954095309582
:101C100021953F4F4F4F5F4F089590958095709558
:101C200061957F4F8F4F9F4F08950E94260EA59F6D
:101C3000900DB49F900DA49F800D911D11240895C7
:101C4000EE0FFF1F0590F491E02D0994A29FB001C3
:101C5000B39FC001A39F700D811D1124911DB29FE0
:0E1C6000700D811D1124911D0895F894FFCF81
:101C6E006E616E00696E66006F7666002E0000076C
:101C7E0053657474696E6720757020616363656C5B
:101C8E0065726F6D65746572732E2E2E00536361CF
:101C9E006C653A200044617461206F64723A2000D2
:101CAE00536C656570206F64723A200041736C65E9
:101CBE00657020636F756E743A20004D6F74696F96
:101CCE006E207468726573686F6C643A20004465A8
:101CDE00626F756E636520636F756E743A20004D8A
:101CEE004D413834353251206973206F6E2D6C6939
:101CFE006E652E2E2E00436F756C64206E6F7420F1
:101D0E00636F6E6E65637420746F204D4D41383471
:101D1E003532510057454C434F4D4520544F2042CC
:101D2E004C494E44534146452E2E2E002B2B2B2B29
:101D3E002B2B2B2B2B2B2B2B2B2B2B2B2B2B2B2BE5
:101D4E002B2B2B2B2B2B2B2B2B2B2B2B2B2B2B2BD5
:101D5E002B2B2B2B2B2B2B2B2B2B2B2B2B2B2B2BC5
:101D6E002B2B2B2B2B2B00506F776572204C65760F
:101D7E00656C2041743A20005600414343204F4485
:101D8E00523A200041434320313A20000900494E87
:101D9E005420313A203078005359534D4F443A2055
:101DAE00307800436C656172696E6720696E74737A
:101DBE002E2E2E00000000009C09430A32096309F2
:041DCE0043098C0930
:00000001FF
